:020000040800F2
:10000000C04C002045020008C73B0008F132000840
:10001000C53B0008B30B000835460008000000008F
:100020000000000000000000000000008B450008F8
:10003000710C000800000000493C00088D450008D4
:100040005F0200085F0200085F0200085F0200080C
:100050005F0200085F0200085F0200085F020008FC
:100060005F0200085F0200085F0200085F020008EC
:100070005F0200085F020008B50B0008C10B000812
:100080005F0200085F0200085F0200085F020008CC
:100090005F0200085F0200085F0200085F020008BC
:1000A0005F0200085F0200085F0200085F020008AC
:1000B0005F0200085F0200085F0200085F0200089C
:1000C0005F0200085F0200085F0200085F0200088C
:1000D0005F0200085F0200085F0200085F0200087C
:1000E0005F0200085F0200085F0200085F0200086C
:1000F0005F0200085F0200085F0200085F0200085C
:100100005F0200087D3C00085F0200085F020008F3
:100110005F0200085F0200085F0200085F0200083B
:100120005F0200085F0200085F0200085F0200082B
:100130005F0200085F0200085F0200085F0200081B
:100140005F0200085F0200085F0200085F0200080B
:100150005F0200085F0200085F0200085F020008FB
:100160005F0200085F0200085F0200085F020008EB
:100170005F0200085F0200085F0200080000000044
:100180005F0200085F02000800F002F800F04AF881
:100190000AA090E8000C82448344AAF10107DA45E2
:1001A00001D100F03FF8AFF2090EBAE80F0013F0EA
:1001B000010F18BFFB1A43F00103184768700000D5
:1001C00088700000103A24BF78C878C1FAD8520766
:1001D00024BF30C830C144BF04680C6070470000C1
:1001E0000023002400250026103A28BF78C1FBD840
:1001F000520728BF30C148BF0B607047642900F028
:100200002381752900F02081782900F05981732914
:1002100000F0B983002070471FB506F0D1FE1FBD66
:1002200010B510BD00F0B3FB1146FFF7F5FF06F067
:1002300088F800F0D1FB03B4FFF7F2FF03BC00F035
:10024000D9FB00000948804709480047FEE7FEE760
:10025000FEE7FEE7FEE7FEE7FEE7FEE7FEE7FEE776
:1002600004480549054A064B70470000254600082A
:1002700089010008C0460020C04C0020C048002072
:10028000C048002053EA020C00F069802DE9F04BD1
:100290004FF00006002B1FBFB3FA83F503FA05F4F5
:1002A00024FA05F65E4012BF1643B2FA82F502FA4E
:1002B00005F4C5F120051EBF22FA05FC44EA0C0432
:1002C000203556EA044C4FEA144418BF641C4FF022
:1002D00000084FF00009904271EB030C39D300295C
:1002E00019BFB1FA81F701FA07F6B0FA80F700FA00
:1002F00007F6C7F120071EBF20FA07FC46EA0C06E6
:100300002037B6FBF4FCA7EB0507103F07F01F0BE7
:10031000CBF120060CFA0BFB2CFA06F644BFB346D1
:100320000026202FA4BF5E464FF0000B5BEA060CB0
:1003300008BF4FF0010B19EB0B09ABFB027C48EB3C
:100340000608C01B06FB02CC0BFB03CC71EB0C01B7
:10035000C1E70B46024641464846BDE8F08B13B55F
:100360004FF000004FF00001AFF30080BDE81C40EB
:10037000704700000FB41CB50C0007AA009001D014
:100380002044401E074B7B4469460190069800F0CC
:10039000C8FA002C03D06946002000F0D5FA1CBC36
:1003A0005DF814FBC905000070B504468569006856
:1003B000C10601D5302600E02026C00707D070BD59
:1003C000D4E9012130469047206A401C20626D1E0E
:1003D000F6D570BD70B5044685690078C00707D1B1
:1003E00070BDD4E9012120209047206A401C206282
:1003F0006D1EF6D570BD70B50C460546012A05D0B8
:100400002878800600D5EA69002302E0012305E090
:100410005B1C934202D2E05C0028F9D1A869E6187F
:10042000C01AA861286A184428622846FFF7BCFF52
:1004300004E0D5E9012114F8010B9047B442F8D348
:100440002846FFF7C7FF70BD2DE9F041064600249E
:1004500010687529314616A510D0AFF3008000282A
:1004600002DA404213A507E031688A0701D512A5D8
:1004700002E0490704D511A5012401E0AFF3008093
:1004800000210A2206F1240709E0B0FBF2FCB0FBD0
:10049000F2F302FB1C00303078541846491C002847
:1004A000F3D123462A463046BDE8F04100F0DAB9E0
:1004B000000000002D0000002B00000020000000C4
:1004C00070B504460D4621461068AFF300802188C0
:1004D000090502D50F4A7A4402E00E4A7A440E32E8
:1004E000002104F1240305E000F00F060009965DE9
:1004F0005E54491C0028F7D120780023000704D55A
:10050000702D02D009B1022311322046BDE870409F
:1005100000F0A8B9CA6C00002DE9F05F89460446D6
:100520004FF0000ADFF874B1FB44C0F820A0204669
:10053000E1688847002874D0252806D0D4E9012135
:100540009047206A401C2062F1E700265F46204663
:10055000E16888472028054607DB312D05D2781948
:1005600010F8200C08B10643F1E7B00701D526F0DA
:100570000406C4F81CA00027C4F818A02A2D09D02E
:10058000284604F0F8F838B304EB8708303DC8F883
:10059000185019E059F8041B204604EB87029161BA
:1005A000E1688847012F054618D1E069002820DA64
:1005B00026F020061DE0D8F8180000EB800005EBBF
:1005C00040003038C8F818002046E16888470546E2
:1005D00004F0D1F80028EED1012F0AD02E2D08D139
:1005E0002046E16888477F1C0546022F46F020061A
:1005F000C4DBA069002803DA404246F00106A0618E
:10060000F00701D026F010066C2D0BD0682D09D014
:100610004C2D39D06A2D35D0742D35D07A2D33D06C
:1006200016E038E0E1682F4620468847B842054684
:1006300009D16C2F26D04FF48060E1680643204634
:100640008847054604E06C2F1AD04FF480700643AB
:100650000DB3A5F14100192802D8203546F40066F3
:100660004A462946204626604E46FFF7C7FD80B120
:1006700001280BD0F61D26F0070000F1080956E707
:100680004020E4E78020D8E70020D6E706F10409FF
:100690004DE7284652E7206ABDE8F09FA06C0000B5
:1006A00010B5431C02E010F8011B71B18107FAD1AB
:1006B0004FF0013202C88C1A8C4314EAC211F9D0EF
:1006C000C01A0A0603D0C01E10BDC01A10BD0A040D
:1006D00001D0801E10BD0902FCD0401E10BD032AAF
:1006E00040F2308010F0030C00F0158011F8013B4F
:1006F000BCF1020F624498BF11F801CB00F8013B36
:1007000038BF11F8013BA2F1040298BF00F801CBF9
:1007100038BF00F8013B11F0030300F02580083AD0
:10072000C0F0088051F8043B083A51F804CBA0E827
:100730000810F5E7121D5CBF51F8043B40F8043B7C
:10074000AFF30080D20724BF11F8013B11F801CBB1
:1007500048BF11F8012B24BF00F8013B00F801CB82
:1007600048BF00F8012B704710B5203AC0F00B804D
:10077000B1E81850203AA0E81850B1E81850A0E8A5
:100780001850BFF4F5AF5FEA027C24BFB1E81850FF
:10079000A0E8185044BF18C918C0BDE810405FEA6F
:1007A000827C24BF51F8043B40F8043B08BF7047EB
:1007B000D20728BF31F8023B48BF11F8012B28BFF0
:1007C00020F8023B48BF00F8012B70474FF00002B1
:1007D0000429C0F0128010F0030C00F01B80CCF153
:1007E000040CBCF1020F18BF00F8012BA8BF20F8C1
:1007F000022BA1EB0C0100F00DB85FEAC17C24BF15
:1008000000F8012B00F8012B48BF00F8012B7047BE
:100810004FF0000200B5134694469646203922BF99
:10082000A0E80C50A0E80C50B1F12001BFF4F7AFE4
:10083000090728BFA0E80C5048BF0CC05DF804EBC6
:10084000890028BF40F8042B08BF704748BF20F834
:10085000022B11F0804F18BF00F8012B7047704732
:10086000704770472DE9F0470D4699469246044679
:1008700000F124080168880604D5E06921F0100120
:10088000216000E00120A84201DD471B00E00027B5
:10089000A1697A1902EB0900081AA0612078C00644
:1008A00002D42046FFF780FD002608E0D4E90121AC
:1008B0001AF806009047206A401C761C20624E45BC
:1008C000F4DB2078C0060AD52046FFF76DFD06E070
:1008D000D4E9012130209047206A401C2062381E54
:1008E000A7F10107F4DC07E0D4E9012118F80500BD
:1008F0009047206A401C2062281EA5F10105F3DC08
:100900002046FFF767FD2078000602D50220BDE8EB
:10091000F0870120FBE7000001694A1C02610878AA
:10092000704700B58FB0CDE901310021059105492F
:100930007944CDE9031011466846FFF7EDFD0FB08D
:1009400000BD0000E5FFFFFF0A6802F8010B0A6026
:100950007047D1E900239A4202D2531C0B601070F9
:10096000704710B5436913B1AFF3008001E0FFF7A2
:1009700042FD012010BD127800F124010A7000220E
:100980004A700122EDE711684FF0FF32E9E7754642
:1009900000F02CF8AE4605006946534620F00700EB
:1009A000854618B020B5FFF75BFCBDE820404FF04E
:1009B00000064FF000074FF000084FF0000B21F049
:1009C0000701AC46ACE8C009ACE8C009ACE8C00916
:1009D000ACE8C0098D46704710B50446AFF30080FF
:1009E0002046BDE81040FFF726BC000000487047D5
:1009F0005C46002001491820ABBEFEE7260002003D
:100A0000704700000148C0797047000008000020CE
:100A100001484078704700000800002001488078B5
:100A2000704700000800002001480078704700006F
:100A30000800002010B50121124800F0CFFC124937
:100A40008871C8714FF48071104800F0C7FC0E49DE
:100A50000C318871C8714FF400510D4800F0BEFC94
:100A6000094918318871C871962000F0ADFB05F076
:100A7000FDFB054920390028887001D0032008704B
:100A800010BD0000000002402800002000100240BD
:100A90000008024010B51F4C207801280DD004F149
:100AA000380003F049FF40B1E079401CC0B207288C
:100AB00000D30020E07106F001F81648203003F062
:100AC0003BFF48B12078012801D018B104E006F0BE
:100AD0004BF901E006F0A8F80E482C3003F02CFF8B
:100AE00048B12078022801D018B104E006F012F9CC
:100AF00001E006F027F82078012805D0022807D168
:100B0000BDE8104005F0DABEBDE8104005F0F4BEC7
:100B100010BD000008000020704700000146014899
:100B200002F032B87C43002010B5044802F03EF8D1
:100B3000042801D0012010BD002010BD7C430020FE
:100B400010B500F00BF8012801D0012010BDBDE860
:100B50001040014802F044B97C43002008B5012050
:100B60008DF800009DF8000008BD000038B5002495
:100B7000009313460A460146034802F0D5F900B136
:100B80000124204638BD00007C430020704700004F
:100B900038B50024009313460A460146034802F084
:100BA000BBFA00B10124204638BD00007C43002080
:100BB0007047FEE7014800F095B9000010010020E1
:100BC000014800F08FB9000070010020016818236F
:100BD000CAB2103AB2FBF3F2054B6FF30901032AD4
:100BE0009B5CC36500D9091D8165084670470000FC
:100BF000E870000810B5014600208B698A6A4FF042
:100C0000C07453B1B3F5005F15D072B1012A0CD096
:100C1000022A0AD0032A09D104E01AB1012A06D017
:100C2000022A03D1C96AC90100D5012010BDC96AD1
:100C3000A142FAD010BD002AF7D0012AF2D0022A30
:100C4000F3D0032AF3D010BD30B50468256825F42D
:100C500080252560046863608368402B036803D0A7
:100C600099600068C26030BD9A600068C16030BDA4
:100C70007047000010B5074C237800B1037009B12C
:100C8000607808700AB1A07810700BB1012010BD17
:100C9000002010BD0000002070B5F8B13A4948604E
:100CA0000020087048708870802100F085F8A8B98D
:100CB000142000F089FA0021084600F07DF868B998
:100CC000142000F081FA314D002400BF05EB4400F0
:100CD000417815F8140000F06FF808B1012070BDDC
:100CE000022000F071FA641C1A2CEFD312210020AC
:100CF00006F0F6F80021082006F0F2F802210B2099
:100D000006F0EEF80921032006F0EAF86621092032
:100D100006F0E6F800210A2006F0E2F80C21084669
:100D200006F0DEF802210D2006F0DAF8002110208E
:100D300006F0D6F80021192006F0D2F800211A207A
:100D400006F0CEF800211B2006F0CAF8B8212720B3
:100D500006F0C6F8B8212A2006F0C2F880212B2020
:100D600006F0BEF821212E2006F0BAF821212F200E
:100D700006F0B6F82121302006F0B2F8212131200A
:100D800006F0AEF8002070BD00000020CA6F000819
:100D90003EB502460748406850B149B1009164230E
:100DA0000124CDE901432346202100F0EBFB3EBDA9
:100DB00001203EBD0000002013B50246074884B064
:100DC000406848B16424012305A98DE81A00202158
:100DD00000F0DAFC06B010BD0120FBE700000020A7
:100DE00072B6FEE7002200F001B8000030B50E4BED
:100DF000054601205C7A002C14D1587A1C54587A8C
:100E000003EB800045605D7A03F108002A54587AAC
:100E1000421C5A72303008703A2048702F20887077
:100E2000CC70002030BD0000504600202DE9F0417C
:100E30000446876D00F0DCFA064694F8350000257C
:100E4000022806D08020606584F834500120BDE877
:100E5000F0812068016821F0160101602068416975
:100E600021F080014161206C08B9A06C20B120689C
:100E7000016821F0080101602068016821F001018A
:100E800001600CE000F0B4FA801B052807D920208F
:100E90006065032084F8350084F83450D7E7206873
:100EA0000068C007EED194F85C103F208840B8601D
:100EB000012084F8350084F834500020C7E790F80A
:100EC0003510022903D0802141650120704705219A
:100ED00080F835100068016821F0010101600020F0
:100EE000704700002DE9F84304464FF00009CDF8A3
:100EF000009063484FF41651A56D0068B0FBF1F700
:100F00002E6894F85C10082000FA01F131420FD0ED
:100F100021680A6852070BD50A6822F004020A60A9
:100F200094F85C108840A860606D40F00100606536
:100F300094F85C104FF0010808FA01F0304208D034
:100F400021684969090604D5A860606D40F0020077
:100F5000606594F85C1004208840304208D0216815
:100F60000968890704D5A860606D40F004006065D9
:100F700094F85C1010208840304218D0216809682D
:100F8000090714D5A86020680168490304D50068E2
:100F9000000308D5A16C07E00168C90503D4016806
:100FA00021F008010160216C09B12046884794F8BE
:100FB0005C1020208840304231D021680968C90681
:100FC0002DD5A86094F8350005282068016806D062
:100FD000490347D5006800031DD4616C1CE021F073
:100FE000160101602068416921F080014161206C97
:100FF00008B9A06C20B12068016821F008010160E7
:1010000094F85C103F208840A86084F8358084F80C
:101010003490216D1FE0E16B09B120468847606D77
:1010200000282BD0606DC00714D0052084F835004F
:101030002068016821F0010101600098401C0090C7
:10104000B84203D820680068C007F6D184F835801C
:1010500084F83490E16C002910D001B02046BDE83E
:10106000F04308470168C905D5D4016821F0100193
:10107000016084F8358084F83490CCE7BDE8F883CB
:10108000680000202DE9F041044600F0B1F9064661
:101090005CB1022084F83500002584F834502068C3
:1010A000016821F0010101600DE00120BDE8F0813F
:1010B00000F09EF9801B052805D9202060650320DB
:1010C00084F83500F2E720680068C007F0D1226894
:1010D000116820480140D4E901031843D4E90336DC
:1010E0003343184363691843A3691843E3691843FA
:1010F000236A18430843616A042903D1D4E90B1316
:1011000019430843106020684069666A20F00701AF
:1011100030460E43012704280CD1A06A0643E06A3A
:1011200040B12046FFF766FD20B14020606584F89D
:101130003570BAE7206846612046FFF747FD94F80E
:101140005C203F2191408160656584F83570002006
:10115000ACE700003F8010F02DE9F0410446866DB9
:1011600090F83400002501280DD0012084F83400C7
:1011700094F835700020012F07D084F83400022540
:101180002846BDE8F0810220FBE7022784F835708D
:1011900060652046FFF758FD94F85C103F208840BA
:1011A000B0602068016841F016010160206C20B138
:1011B0002068016841F0080101602068016841F081
:1011C00001010160DCE7000070B5044600F010F991
:1011D0000546601C02D004480078044400F008F979
:1011E000401BA042FAD370BD5C0000202DE9F84FEF
:1011F000DFF8BCA10022012503264FF00F090AF1F8
:10120000040BAAF1040E00BF0B6805FA02F4234098
:10121000A34270D10F7907F00307012F01D0022FED
:1012200016D187684FEA420806FA08FC27EA0C073D
:10123000D1F80CC00CFA08FC4CEA070CC0F808C046
:101240004768A7430C79C4F3001494403C434460BE
:101250000C79E443A4070AD0C4684FEA420C06FAAA
:101260000CF7BC438F6807FA0CF72743C7600C796B
:1012700004F00304022C12D1D40800EB840CDCF837
:1012800020405707FF0E09FA07F824EA0804D1F8AE
:10129000108008FA07F848EA0408CCF820800468AF
:1012A0004FEA420C06FA0CF7BC430F7907F003072C
:1012B00007FA0CF7274307604C6814F4403F70D0DE
:1012C0003C4C276847F480472760246822F00307D6
:1012D00004F480440094384C07EB040CDCF8084814
:1012E00097074FEA177809FA08F7BC43334FB8421B
:1012F00002D1002724E054E0314FB84201D1012748
:101300001EE0304FB84201D1022719E02E4FB842FB
:1013100001D1032714E02D4FB84201D104270FE07B
:101320002B4FB84201D105270AE02A4FB84201D11C
:10133000062705E0284FB84201D1072700E008271B
:1013400007FA08F72743CCF80878DAF80040574640
:10135000D1F804C09C435FEACC2C00D51C433C6010
:10136000DBF800405F46D1F804C09C435FEA8C2C58
:1013700000D51C433C60DEF800407746D1F804C03D
:101380009C435FEA8C3C00D51C433C60084F083FFF
:101390003C68D1F804C09C435FEACC3C00D51C43B8
:1013A0003C60521C102AFFF42FAFBDE8F88F0000FC
:1013B000083C014044380240003001400000024037
:1013C0000004024000080240000C024000100240ED
:1013D0000014024000180240001C0240006908404E
:1013E00000D0012070470AB1816170470904FBE712
:1013F00001488068704700005C00002070B5040060
:1014000025D094F83D00002520B984F83C502046B2
:1014100000F052FA242084F83D002068016821F091
:10142000010101602068016841F400410160206809
:10143000016821F40041016001F0DCF84D4A616867
:10144000914201D84C4900E04C49884201D2012028
:1014500070BD4B492368B0FBF1F15E6826F03F0692
:101460000E435E606368934206D94FF49673594306
:101470004FF47A73B1FBF3F12368491C1E6A26F01E
:101480003F06314319626168914210D84900401EFD
:10149000B0FBF1F2521CC2F30B02042A01D2042069
:1014A00022E0B0FBF1F0401CC0F30B001CE0A2688E
:1014B000F2B301EBC10303EB0116431EB3FBF6F3DA
:1014C0005B1C43F480431B0549D092B301EBC1027E
:1014D00002EB0111401EB0FBF1F0401CC0F30B0009
:1014E00040F4804040F400402168CA694CF6FF7324
:1014F0009A431043C861D4E9071001432068026889
:1015000022F0C00211430160D4E9030101432068C5
:10151000826848F2FF339A4311438160D4E90501A0
:1015200008432168CA6822F0FF021043C86001E046
:101530000EE016E02068016841F0010101602564B9
:10154000202084F83D00256384F83E50002070BDC3
:1015500001EB4106431EB3FBF6F35B1CB3E701202E
:10156000C2E701EB4101401EB0FBF1F0401CC0F3AB
:101570000B00B7E7A086010080841E0000093D0033
:1015800040420F002DE9FF4F83B09A46DDE91187F5
:1015900093460446DDF84090FFF72AFF054694F88D
:1015A0003D00202870D1192301227449204600955E
:1015B00001F0B4FF0028F5D194F83C00012863D075
:1015C000012084F83C0020680168C90703D1016844
:1015D00041F0010101602068016821F400610160AF
:1015E000222084F83D00402084F83E000026266436
:1015F000C4F82490A4F82A80608D20856048E062B9
:10160000CDE9007553465A462046049901F088FEFC
:10161000002879D1208DD0B1012821D0022820685E
:1016200024D0416980690090208D032866D8012864
:101630002BD0544902283B464FF00002009557D06A
:101640008846204601F06AFF00285DD13AE0206814
:10165000416981690091016841F4007101607DE098
:101660002068016821F480610160F0E7016821F4DD
:10167000806101602068016841F4006101602068B8
:1016800041698069009069E075E02A463946204644
:1016900001F0EAFF88BB54E02068016841F4007162
:1016A000016020680069616A0870606A401C6062BD
:1016B000218D491E2185618D491E61852168096939
:1016C000017042E02068016821F4806101602068B7
:1016D0000069616A0870606A401C6062208D401E6B
:1016E0002085608D401E60853B4600224146009566
:1016F000204601F013FF00B9CEE705E02A4639463F
:10170000204601F0B1FF18B1012007B0BDE8F08F0D
:1017100020680069616A0870606A401C6062208D00
:10172000401E81B22185608D401E6085206842691F
:10173000D243520712D4032903D1016821F48061F6
:10174000016020680069616A0870606A401C60621C
:10175000208D401E2085608D401E6085208D0028D4
:101760007FF462AF202084F83D0084F83E6084F866
:101770003C600020C9E70220C7E70000020010001B
:101780000000FFFF040001002DE9FF4F83B09A46DF
:10179000DDE9119793460446DDF84080FFF728FE07
:1017A000054694F83D0020287FD1192301224049A5
:1017B0002046009501F0B2FE002876D194F83C0056
:1017C000012872D0012084F83C0020680168C90714
:1017D00003D1016841F0010101602068016821F432
:1017E00000610160212084F83D00402084F83E0023
:1017F00000262664C4F82480A4F82A90608D2085F1
:101800002C48E062CDE9007553465A4620460499BB
:1018100001F004FE70B930E02A463946204601F056
:101820005BFF58B1206C042804D12068016841F4A2
:1018300000710160012007B0BDE8F08F606A216887
:1018400000780861606A401C6062218D491E89B27F
:101850002185628D521E628522685369DB435B07D6
:101860000BD469B100781061606A401C6062208D01
:10187000401E2085608D401E6085208D0028CBD1C4
:101880002A463946204601F01DFE0028CAD154F8E8
:101890003D0B016841F400710160202004F81E092D
:1018A000E67766770020C6E7FFE70220C3E700007F
:1018B000020010000000FFFF10B586B0044614219E
:1018C0006846FEF7A5FF13492068884220D11248D8
:1018D000016841F0020101600068694600F0020001
:1018E0000590C0200090122001900120029002205B
:1018F0000390042004900948FFF778FC0648103054
:10190000016841F400110160006800F400100590C6
:1019100006B010BD005400403038024000040240C0
:101920002DE9FF4104460068816800917749784EAF
:101930004FF04027884201D1324600E03A46926893
:10194000019240688846029001D1304600E0384656
:101950004068039060684FF00105B0F5007F1CD02F
:10196000D8B1900705D50398000602D5204601F0AE
:101970000FFF0098C0070FD0029840067FD521685E
:101980002046CA68E16A8B1CE3620A80618E491EA8
:101990006186618E002967D071E00098800719D5B3
:1019A0000298000616D5616A20468A1C6262226887
:1019B0000988D160618D491E6185618D51B90168C9
:1019C0004A6822F0A0024A60418E19B980F841505D
:1019D00000F06AF90198C00705D00398400602D5C7
:1019E000204601F0A5FE0198400622D50398800606
:1019F0001FD52168414501D1304600E03846406896
:101A000020F0600101D1304600E038464160206896
:101A1000416821F0A00141602068C16880680190A0
:101A200084F84150606C40F002006064204600F091
:101A300073FA0098000767D50298800664D520687D
:101A4000416821F0A00141602168414501D1304643
:101A500000E03846406820F0600000D03E467060EC
:101A600020688068009043E001684A6822F06002C4
:101A70004A60418D19B980F8415000F015F900987D
:101A800040061ED5029880061BD52068416821F0CB
:101A9000600141602168414501D1304600E038468F
:101AA000406820F0A00101D1304600E03846416096
:101AB00084F84150606C40F002006064204600F001
:101AC0002BFA019800071FD5039880061CD52168C2
:101AD000414501D1304600E03846406820F0A00082
:101AE00000D03E4670602068416821F0600141608E
:101AF00084F84150606C40F00400606404B02046FB
:101B0000BDE8F04100F008BABDE8FF8100380040B0
:101B1000003400402DE9F84F044690F8410090460B
:101B20008946012847D1E9B3E2B3DBB394F840001A
:101B3000012840D0012084F84000E2626162206800
:101B4000C06900F00700032837D0052835D0238569
:101B500063852386A4F832304FF0000AC4F844A00D
:101B6000052384F84130E56B4A4B2B64E56B4A4B07
:101B7000EB63E56B494BEB64A56BC5F840A0A56B27
:101B8000C5F83CA0A06BC3642068C369444D03F44E
:101B90004073444E4FF04027B3F5007F16D0ABB1F1
:101BA000C26900E004E0C2F30122032A33D035E029
:101BB0000120BDE8F88F0220FBE74FF6FF7000EA36
:101BC00043002085608520866086C5E7238EA84275
:101BD00001D1314600E039460C31E06BFFF7BCFA29
:101BE0002068A84201D1304600E03846406840F005
:101BF000010101D1304600E038464160238D226862
:101C0000494602F10C02A06BFFF7A6FA21684A6868
:101C100042F0020226E0C26882680092238DA84248
:101C200001D1324600E03A460C32A06BFFF794FA3D
:101C30002068A84201D1304600E03846406840F0B4
:101C4000020101D1304600E038464160238E216810
:101C5000424601F10C01E06BFFF77EFA21684A6809
:101C600042F001024A6084F840A02168CA69520526
:101C70009FD4A94201D1314600E03946C96941F4F7
:101C8000806100D03E46F1612168CA6942F48062F9
:101C9000CA618EE7CD380008F137000879380008AE
:101CA00000380040003400400349884202D1034913
:101CB0000120887370470000C80000200800002041
:101CC0000349884202D1034901204873704700004C
:101CD000C8000020080000202DE9F84F0446002528
:101CE0004068DFF82CA28B4EAB464FF040274FF0F8
:101CF0000108B0F5007F07D030B1B0F5407F78D053
:101D0000B0F5807F75D0F6E0A06B38B1FFF78EF8A4
:101D100020B1606C40F0080060640125642301225A
:101D20000221204601F050FE30B1606C40F001000D
:101D3000606484F8418001256423002280212046CC
:101D400001F042FE30B1606C40F00100606484F844
:101D5000418001252068C16921F48061C16120684A
:101D600081680091416821F00201416094F84100CE
:101D700005283CD1E06B38B1FFF758F820B1606C12
:101D800040F008006064012521685046814201D17D
:101D9000314600E03946C96921F4806101D13246FB
:101DA00000E03A46D161CDF800B02168814201D10E
:101DB000314600E03946C968009101D1314600E062
:101DC00039468968009101D1314600E039464968B9
:101DD00021F0010101D1324600E03A4651606168CC
:101DE00000297DD02168514500D03E46F06882E050
:101DF000FFE7E06B38B1FFF719F820B1606C40F0F5
:101E000008006064012594F8410005285ED1A06BAC
:101E100038B1FFF70BF820B1606C40F00800606447
:101E20000125FFF7E5FA81460DE000BFFFF7E0FA74
:101E3000A0EB0900642806D9606C40F001006064E2
:101E400084F8418001252168514501D1314600E0E7
:101E500039468968C9438907E8D40CE0FFF7C8FA16
:101E6000A0EB0900642806D9606C40F001006064B2
:101E700084F8418001252168514501D1304600E0B8
:101E800038468068C0430006E8D5514501D1314647
:101E900000E03946C96921F4806101D1324600E091
:101EA0003A46D161CDF800B02168514501D13046A4
:101EB00000E038468068009001D1304600E03846A6
:101EC000406820F0020000D03E4670602068C16982
:101ED00021F48061C1612068C1688168009100E0DF
:101EE0000EE0416821F0010141606068B0F5807F3B
:101EF00006D02068C06884F841802846BDE8F88F85
:101F0000606C40F04000606484F841800125F2E795
:101F10000038004000340040074988420AD1074891
:101F2000C17B002906D10121817000214173817399
:101F30000321017070470000C80000200800002045
:101F40002DE9F047040005D094F841004FF0000857
:101F500018B109E00120BDE8F08784F840805148BD
:101F60006063204600F0A6F8022684F841602068ED
:101F7000C16940F6BF77B943C161206806626069F4
:101F80004FF4007902282FD0E06870B12025A068B6
:101F9000202800D86D00012000F0C4F921694945CE
:101FA0001FD1E16819B1A90002E01025EFE7E900AF
:101FB000B0FBF1F000EB800061694000B0FBF1F094
:101FC000401D0A21B0FBF1F000F00101401A400869
:101FD0000902821EFE2A09D3606C40F01000606482
:101FE000B8E7B0FBF5F0E5E70220002122690843DD
:101FF000024320680262D4E901010843A269E16852
:10200000114308432168CA69BA43104340F4006091
:10201000C861206A01283AD12348606323482168B7
:10202000234A4FF04023814201D1114600E0194676
:10203000C96921EA070101D1154600E01D46E961A1
:102040002168814201D1114600E019460E622568DF
:10205000854201D1114600E01946C9698EB2616816
:1020600049451BD0D1B100212789B4F80CC047EAFB
:102070000C07B4F818C04CEA010C47EA0C07B9B2D7
:10208000314341F40061854200D01A46D161C4F861
:102090004480012084F8410000205CE74FF4807107
:1020A000E2E70000D7380008211900080038004096
:1020B000003400402DE9F04F8BB0054614216846EE
:1020C000FEF7A6FB00240594069407940894414962
:1020D000286888427BD10120059032200226CDE974
:1020E000060605A800F04EF908B1FEF779FE3A4859
:1020F000016841F480410160006800F4804009906B
:1021000035481038016841F004010160016801F0B0
:1021100004010991016841F0020101600068032790
:1021200000F0020009900420CDE900060294062088
:10213000CDE90370DFF8A49069464846FFF756F8EA
:102140004820CDE9000602AA4FF0050882E8900178
:1021500069464846FFF74AF87802CDE9000602AA28
:10216000694682E890011E48FFF740F81E4E1D4860
:102170004FF4006830607806C6E9010406F10C00EF
:102180004FF480674FF400594FF4807A4FF4403B8E
:1021900080E8900F30467462FEF774FF08B1FEF7D6
:1021A0001FFEEE63B563104E0E4860361830E6E849
:1021B00002044020A6E8910F0B4846F824496030FD
:1021C000FEF760FF08B1FEF70BFEAE63B5630BB020
:1021D000BDE8F08F0038004040380240000802405F
:1021E0000004024058600240100100207047704710
:1021F0000248816802781144816070475C000020C9
:102200000B4810B5016841F400710160016841F4A8
:1022100080610160016841F480710160032000F079
:102220006FF80F2000F006F800F024F8002010BD31
:10223000003C024070B50D4D04464FF47A71287889
:10224000B1FBF0F00A490968B1FBF0F001F03CF88D
:1022500048B9102C07D200222146501E00F030F859
:1022600000206C6070BD012070BD00005C0000208B
:10227000680000200A4808B5016841F48041016007
:10228000006800F4804000900548001F016841F09C
:1022900080510160006800F08050009008BD00008F
:1022A00044380240002809DB00F01F020121914060
:1022B0004009800000F1E020C0F8001170470000E4
:1022C000F0B40E4B1B680C46C3F30223C3F10705A1
:1022D000042D00D90425191D072901D2002300E08F
:1022E000DB1E012606FA05F1491E214099409E4059
:1022F000761E16403143F0BC02F02DBA0CED00E022
:10230000064900F0070208684FF6FF03184040EA4C
:102310000220034A10430860704700000CED00E003
:102320000000FA0501460020012908D11149096879
:1023300011F4000104D0B1F5000F00D10E48704730
:102340000C48001F01680068490200F03F0001D5F9
:102350000A4900E00A49074AB1FBF0F07C321168F3
:10236000C1F3881141431068C0F30270B1FBF0F073
:1023700070470000083802400080BB0040787D01B3
:102380000024F4002DE9F843054600684FF00109E8
:10239000C1074FF0000601D1400727D5DFF80C81B7
:1023A000C8F86860FFF724F80746414C05E000BF15
:1023B000FFF71EF8C01B022857D820680001F7D489
:1023C00068688101287A41EA0070394984310860DF
:1023D000C8F86890FFF70CF8074604E0FFF708F824
:1023E000C01B022841D820680001F7D52878800753
:1023F00052D52F484030016841F08051016000689B
:102400002C4C00F080500090206840F480702060D8
:10241000FEF7EEFF074604E0FEF7EAFFC01B0228C6
:1024200023D82068C005F7D5214C7034206810F4FB
:10243000407020D0A98901F4407181421BD02068EE
:102440001D4920F44070C1F800900E6020602068A3
:10245000C00710D0FEF7CCFF064641F2883707E0F0
:10246000FEF7C6FF801BB84202D90320BDE8F883FF
:1024700020688007F4D5E9680D48C1F301220830CF
:10248000032A0BD0016821F4F81101602068A989A2
:10249000C1F30B01084320600020E7E70268074B07
:1024A00022F4F81219400A430260EFE700004742A5
:1024B0000038024000700040400E4742FFFCFF0F12
:1024C0002DE9F0470E46050065D0DFF81481D8F8F5
:1024D0000000F7B200F00700B04207D288F80070A1
:1024E000D8F8000000F00700B04254D128683D4CF5
:1024F000810712D5400703D5206840F4E0502060E2
:102500002878000703D5206840F4604020602068E8
:10251000A96820F0F000084320602878C0072DD07B
:10252000304968680839012812D0022813D00328DE
:1025300011D00968890700292DDA216821F00301EB
:1025400001432160FEF754FF814641F2883A0EE0D4
:1025500009688903EFE709688901ECE7FEF748FF9E
:10256000A0EB0901514502D90320BDE8F08720689E
:10257000696800F00C00B0EB810FEFD1D8F80010C3
:10258000404601F00701B14207D90770006800F02A
:102590000700B04201D00120E7E72878400705D5C1
:1025A0002068E96820F4E05008432060287800079C
:1025B00006D52068296920F4604040EAC100206007
:1025C00000F028F82168084AC1F30311515CC840A3
:1025D0000649086006480068FFF72CFE0020C4E7A3
:1025E000003C024008380240F070000868000020FB
:1025F000600000200448054900680968044AC1F3E6
:102600008221515CC84070476800002008380240B1
:1026100000710008154810B5006810F00C0214484D
:1026200013D01449042A0FD0082A0ED10F4C241FAE
:102630002268236802F03F025B0207D52068C0F3DE
:102640008810A0FB010106E0084610BD2168C1F317
:102650008811A1FB00010023FDF714FE2168C1F3DE
:102660000141491C4900B0FBF1F010BD083802409F
:102670000024F40040787D012DE9F84F04006ED06D
:102680002078DFF84C93C007A9F104054AD009F17E
:1026900004000168C1F38101012908D00068C0F37A
:1026A000810002280AD1D9F80000400206D5286826
:1026B000800337D560680028E1D033E06068B0F56A
:1026C000803F10D0B0F5A02F286810D020F48030C3
:1026D0002860286820F4802028606068A8B1FEF790
:1026E00087FE06460DE0286840F48030F4E740F4A9
:1026F00080202860F7E700BFFEF77AFE801B642881
:1027000073D828688003F7D50CE0FEF771FE064603
:1027100005E000BFFEF76CFE801B6428F0D8286837
:102720008003F7D42078DFF8AC8280074FF0000AEE
:102730003ED5A748001D016811F00C0F08D00068B5
:10274000C0F3810002280BD1D9F80000400207D461
:102750002868800716D5E068012800D112E033E12F
:10276000E068B8B10120C8F80000FEF741FE064657
:1027700005E000BFFEF73CFE801B0228C0D8286899
:102780008007F7D52868216920F0F80040EAC100E9
:1027900028600DE0C8F800A0FEF72AFE064604E017
:1027A000FEF726FE801B02281FD828688007F7D472
:1027B0002078000722D5864F87486169703771B14C
:1027C00001210160FEF714FE064604E0FEF710FE4C
:1027D000801B022809D838688007F7D50EE0C0F8BA
:1027E00000A0FEF705FE064605E082E0FEF700FECB
:1027F000801B02287DD838688007F7D420784007EE
:1028000068D5DFF8CCB100270BF13C0BDBF80000FA
:10281000C0000BD4DBF8001041F08051CBF8001061
:10282000DBF80000012700F0805000906B4E30680C
:10283000C00510D4306840F480703060FEF7D8FDD9
:10284000009005E0FEF7D4FD0099401A022850D808
:102850003068C005F6D55E4EA0686C3601280FD0F2
:102860000528306810D020F001003060306820F07A
:1028700004003060A068B8B1FEF7BAFD00900FE028
:10288000306840F00100F4E740F004003060F7E702
:10289000FEF7AEFD0099411A41F28830814266D8B8
:1028A00030688007F4D50EE0FEF7A2FD009007E047
:1028B000FEF79EFD0099411A41F28830814256D8B8
:1028C00030688007F4D42FB1DBF8001021F080517C
:1028D000CBF80010A069C8B33D49091D0968C1F3D0
:1028E000810102294AD00228504607D0C8F860006A
:1028F00000E03CE0FEF77CFD04463BE04746C8F8BC
:102900006000FEF775FD064605E000BFFEF770FDAE
:10291000801B02282BD828688001F7D4D4E907014E
:102920000843A16A2E4A490802EB0141626A41EA62
:102930008211084394F82C1040EA0161C9F8001094
:1029400001203866FEF754FD044606E03EE000BF75
:10295000FEF74EFD001B022809D828688001F7D534
:1029600034E000BFFEF744FD001B022802D903201B
:10297000BDE8F88F28688001F4D427E00128F7D05B
:10298000D9F80000E26900F4800191421CD1226A6A
:1029900000F03F01914217D147F6C071626A0140D1
:1029A000B1EB821F10D1A26A4FF0FF3300F4403127
:1029B00003EB5202B1EB024F06D194F82C1000F059
:1029C0007060B0EB016F01D00120D1E70020CFE7AC
:1029D0000438024000004742800E47420070004029
:1029E0000000FFFF10B5FEF797F810BD704700001C
:1029F000F0B5426E920F0A70426EC2F383624A7063
:102A0000426EC2F301628A70426E120CCA70B0F854
:102A10006420120A0A7190F864204A71826E120DC5
:102A2000CA80826EC2F303420A72B0F86820C2F311
:102A3000C0324A72B0F86820C2F380328A72B0F8AD
:102A40006820C2F34032CA72B0F86820C2F3003284
:102A50000A7300264E73426C4FF40075012462B174
:102A6000012A3AD0026847499163816B41F0805155
:102A7000816380F834400120F0BDB0F86820C36E57
:102A80009205120D42EA93720A61C26EC2F3C262EB
:102A90000A75C26EC2F302624A75C26EC2F3425236
:102AA0008A75C26EC2F38242CA75C26EC2F3C23266
:102AB0000A760A69521C42650B7E03F007039B1CD1
:102AC0009A4042650B7A03F00F0704FA07F3836517
:102AD0005B0A5A43C0E917250EE090F86820C36EE0
:102AE0009206920A42EA13420A610A69521C920251
:102AF0004265C0E91652056630F86C2FC2F3803289
:102B000001F8192F0288C2F3C6124A70027802F047
:102B10007F028A704268D20FCA704268C2F3417263
:102B20000A714268C2F382624A714268C2F38352F8
:102B30008A714268C2F34052CA710E724268C2F38F
:102B400000424A728288C2F3C0328A728288C2F31B
:102B50008032CA728288C2F340320A738288C2F31A
:102B600000324A738288C2F381228A738288C2F358
:102B70000122CA730079C0F3460008744C74002027
:102B8000F0BD0000FF054000426C0A60826C4A60A4
:102B9000C26C8A60026DCA60426D0A61826D4A61D0
:102BA000C26D8A61006EC8610020704770B504462E
:102BB000B0F8500000250104206801F098F918B120
:102BC000A16B0143A16304E00021206801F053F8E8
:102BD0000546C5F3432070BDF8B5056B0446006893
:102BE000416B09041BD5290719D5D4E90A56002ED3
:102BF00014D00027206801F05DF805F8010B010AE8
:102C000005F8011B010C05F8021B000E361F7F1C86
:102C100005F8010C082FEDD3C4E90A56F8BD416B45
:102C20004FF00006C9054FF0010744D53902816312
:102C30002068C16B4CF23A329143C1632068C16A8B
:102C400021F00101C16228071DD515F0220F09D01E
:102C5000206801F07DF928B1A16B0143A1632046F2
:102C6000FFF7C4FE216840F23A50886384F834705C
:102C70002663A80703D0204600F046FAF8BD204698
:102C800000F046FAF8BD2806FCD5A80609D520684C
:102C900001F05EF928B1A16B0143A1632046FFF763
:102CA000A5FEA807EED12068C16A21F00801C16223
:102CB00084F83470E3E7416B490424D5290722D511
:102CC000D4E90856002EDDD05FF0000715F8010B9F
:102CD000009015F8011B361F40EA0120009015F8FE
:102CE000021B40EA0140009015F8011C40EA016017
:102CF00000906946206800F0F0FF7F1C082FE5D3A4
:102D0000C4E90856F8BD416B40F23A221142F9D0AD
:102D1000416B890703D5A16B41F00201A163416BAF
:102D2000090703D5A16B41F00801A163416B890636
:102D300003D5A16B41F02001A163416BC90603D506
:102D4000A16B41F01001A163416B890503D5A16B13
:102D500041F00801A16340F23A7181632068C16BC0
:102D600040F23A329143C163206801F0F1F8A16B5F
:102D70000843A063280706D584F8347026632046EC
:102D8000FFF734FEF8BD2806FCD515F0300F0CD047
:102D9000E16B11480865E06BFEF791F80028F1D06F
:102DA000E06BBDE8F84001F09BBAA8070CD0216C9D
:102DB0000A480865206CFEF782F80028E2D0206CF3
:102DC000BDE8F84001F06ABAA66384F8347026635F
:102DD0002046FFF707FEF8BDE14200089D420008CB
:102DE00070B504000ED094F83400002518B925778A
:102DF000204600F04DF8032084F83400204600F00F
:102E00000BF808B1012070BDA5632563012084F88B
:102E10003400002070BD0000FEB500250446762079
:102E20000095CDE901502B462A462946206800F03E
:102E30002BFF154E46F8A05F206800F037FF0125F4
:102E400035600220FEF7C0F9204601F0E3FA28B110
:102E500084F83450A16B0143A16313E0204601F0D4
:102E600061FA0028F4D14FF40071206800F06EFF81
:102E7000002808D0226805499163A16B0143A16332
:102E800084F834500120FEBD00802542FF0540003B
:102E9000F0B587B0044614216846FDF7B9FC1E4919
:102EA0002068884235D11D48016841F40061016005
:102EB000006800F40060059018481438016841F07B
:102EC00004010160016801F004010591016841F00D
:102ED000080101600068022400F0080005904FF42A
:102EE000F850012503260C278DE8F10069460C48AF
:102EF000FEF77CF904208DE8F10069460948FEF7E9
:102F000075F9002211463120FFF7DAF93120FFF779
:102F1000C9F907B0F0BD0000002C01404438024060
:102F200000080240000C02402DE9F04F87B09B469C
:102F300016460D460446FEF75BFA00903DB194F844
:102F40003400012807D0A06B40F000500DE0A06BCA
:102F500040F0006009E00020A063E26D06EB0B0189
:102F6000914204D9A06B40F00070A0638AE0032175
:102F700084F834102168C862616C012900D076029F
:102F80004FF0FF3101914FEA4B2102914FF00108C0
:102F900003AA902102278146CDF8188082E8820298
:102FA00001A9206800F051FEBBF1010F05D927638C
:102FB0003146206800F024FF05E0C4F83080314637
:102FC000206800F036FFDFF83CA130B12268C2F87B
:102FD00038A0A16B0143A16350E0029E1FE0406B4B
:102FE000000413D596B10027206800F063FE05F8B1
:102FF000010B010A05F8011B010C05F8021B000E6C
:10300000361F7F1C05F8010C082FEDD3FEF7F0F9F1
:1030100001460098091A1098814220D2F8B1206820
:10302000426B40F22A310A42D9D0416BC90509D519
:10303000BBF1010F06D9616C032903D000F088FFB2
:103040000028C3D12068416B090702D4416B890570
:103050001AD5C0F838A0A06B40F0080050E02168F5
:10306000C1F838A0A06B40F00040A06384F8348021
:10307000C4F83090032007B0BDE8F08F84F83480A6
:10308000C4F830900120F6E7416B890705D5C0F8F8
:1030900038A0A06B40F0020032E0416B89061BD5DE
:1030A000C0F838A0A06B40F0200029E000F002FE3C
:1030B00005F8010B010A05F8011B010C05F8021BBC
:1030C000000E05F8010C361FFEF792F90099411A1F
:1030D000109881420ED268B12068416B890201D5F7
:1030E000002EE3D1216840F23A50886384F834809E
:1030F0000020C0E72168C1F838A0A06B40F0004074
:10310000A063BBE7FF05400010B5FDF73FFD10BD14
:1031100010B5FDF74DFD10BD2DE9F04F8DB09B466C
:1031200016460D460446FEF763F90A903DB194F841
:103130003400012807D0A06B40F000500DE0A06BD8
:1031400040F0006009E00020A063E26D06EB0B0197
:10315000914204D9A06B40F00070A0637AE0032193
:1031600084F834102168C862616C012900D07602AD
:103170004FF0FF3103914FEA4B2104919021CDE9AB
:1031800005104FF00109CDE90709824603A920681F
:1031900000F05BFDBBF1010F06D920202063314612
:1031A000206800F0EFFE05E0102020633146206823
:1031B00000F001FF5FEA000806D0216841488863FB
:1031C000A06B40EA080074E0049E27E0406B4004D6
:1031D0001CD5DEB15FF0000715F8010B009015F863
:1031E000011B361F40EA0120009015F8021B40EA3F
:1031F0000140009015F8011C40EA0160009069460A
:10320000206800F06AFD7F1C082FE5D3FEF7F0F878
:103210000A99411A1698814220D2F8B12068416B70
:1032200040F21A321142D1D0416BC90523D5BBF10E
:10323000010F20D9616C03291DD000F089FED0B1A7
:10324000226820499163A16B0143A16384F8349003
:10325000C4F830A001200DB0BDE8F08F21681948F6
:103260008863A06B40EA0800A06384F83490C4F837
:1032700030A00320EFE72068416B090702D4416BBF
:10328000890505D50F498163A06B40F0080010E067
:10329000416B890705D50B498163A06B40F00200A3
:1032A00007E0416BC90606D506498163A06B40F073
:1032B0001000A063CAE740F23A51816384F8349069
:1032C0000020C8E7FF05400010B5401EB0F1807F28
:1032D00001D3012010BD4FF0E02460610F21601781
:1032E00001F039FA0020A06107202061002010BD04
:1032F000FEE701684A69D24352050FD46FF4806239
:103300004A61002140F8301F202242738173026914
:1033100042F00402026101730120704700207047EF
:103320002DE9F84F0446006889460B9D01689846D0
:10333000174641F4806101602068016841F48071A2
:10334000016000954FF0011B0022594620460A9B60
:1033500000F0E4F84FF4007A40B120680068C0053E
:1033600001D5C4F840A00320BDE8F88F216809F01A
:10337000FE0008612B46284920460A9A00F016F9FB
:10338000F0BB20684169806900902A4620460A996E
:1033900000F0A2F940B1206C04283AD120680168FD
:1033A00041F40071016034E0FEB2B8F1010F09D0C0
:1033B0002168380A08612A4620460A9900F08CF9EB
:1033C0000028E8D1206806612A4620460A9900F0C4
:1033D00083F90028DFD12068016841F48071016021
:1033E00000950022594620460A9B00F097F80028D5
:1033F000B3D1216809F0FF0040F00100086100E04E
:1034000007E02B46044920460A9A00F0CFF800282E
:10341000AAD00120A8E70000020001002DE9F8432E
:10342000044600680D46DDE908970168984616468F
:1034300041F4807101604B4600224FF0011120469B
:10344000009700F06BF848B120680068C00502D50D
:103450004FF4007020640320BDE8F883216805F074
:10346000FE0008613B464A461549204600F09EF89A
:1034700088B920684169806900903A4649462046EB
:1034800000F02AF948B1206C042804D120680168B2
:1034900041F4007101600120DEE7F5B2B8F1010FDF
:1034A00009D02168300A08613A464946204600F0B2
:1034B00013F90028E7D1206805610020CCE700005F
:1034C0000200010070B516460D4604461EE0204677
:1034D000FFF70FFF08B1012070BD681C16D0FDF783
:1034E00087FF801BA84200D885B920684069C04387
:1034F00040070BD5002044F8300F20216173A073E2
:10350000216941F0200121612073E4E720684069CE
:10351000C0434007DBD4002070BD00002DE9F04718
:10352000984617460D460446C1F30746DDF820903D
:103530002AE000BFB8F1FF3F26D0FDF759FFA0EB0E
:103540000901414502D8B8F1000F1DD12068012EB4
:1035500016D0806925EA00000004000C12D000207B
:10356000B84211D1002044F8300F20216173A073BC
:10357000216941F02001216120730120BDE8F0871D
:103580004069E7E70120EBE72068012E0AD0806957
:1035900025EA00000004000C06D00020B842C9D083
:1035A0000020EBE74069F3E70120F7E72DE9F0475A
:1035B000984616460D4604464FF000094FF0200A83
:1035C000C1F3074723E020684069C043400515D494
:1035D0002068016841F40071016021686FF4806027
:1035E0004861C4F8309084F83DA084F83E90216C86
:1035F00041F00401216484F83C9021E0701C06D065
:10360000FDF7F6FEA0EB0800B04203D816B1012F7B
:103610001FD021E02068012F15D0806925EA000025
:103620000004000C18D000BF44F8309F84F80DA0AF
:1036300084F80E90216941F02001216184F80C90FA
:103640000120BDE8F087406925EA00000004000C75
:10365000EAD12068406901E02068806925EA00001D
:103660000004000CAFD1ECE72DE9F04100259046B5
:103670000E460446202728E04069C043C0060CD40B
:1036800054F8301B6FF01000486144F81059677708
:10369000A577206A2062257714E0FDF7A9FEA0EB4C
:1036A0000800B04200D886B920684069C04340068F
:1036B0000BD544F8305F6773A573206940F0200094
:1036C000206125730120BDE8F08120684169C9436C
:1036D0004906D1D40020F6E770B516460D460446DB
:1036E0001EE02046FFF705FE08B1012070BD681CF2
:1036F00016D0FDF77DFE801BA84200D885B9206852
:103700004069C04300060BD5002044F8300F20214B
:103710006173A073216941F0200121612073E4E706
:1037200020684069C0430006DBD4002070BD000063
:1037300070B515490268154B4FF040248A4201D1FB
:103740001A4600E02246D568C26A961CC6621580F9
:10375000428E521E4286428E002A14D102688A424C
:1037600001D1194600E02146496821F0600100D0EE
:1037700023465960418D002905D14FF0010180F8A1
:103780004110FEF791FA70BD00380040003400404F
:1037900070B5416A144B8A1C426205680988134A55
:1037A0004FF040249D4201D1154600E02546E960D6
:1037B000418D491E4185418D002914D101689942EE
:1037C00001D1114600E02146496821F0A00100D056
:1037D00022465160418E002905D14FF0010180F849
:1037E0004110FEF761FA70BD00380040003400401F
:1037F00070B50146806BC969B1BB0168CA691D4BD0
:10380000C2F301251A4A4FF04024022D0CD0CD6995
:1038100015F4407F08D04D6825F001054D60016822
:10382000914212D1194611E0914201D1194600E0AE
:103830002146496821F0010100D023465960016802
:103840004A6822F002024A6006E02146496821F0F7
:10385000020100D0234659604FF0000141864185A6
:103860004FF0010180F84110FEF71EFA70BD000014
:10387000003800400034004030B4806B01684A6872
:1038800022F003024A600F4A04680F494FF04023B8
:10389000944201D10A4600E01A46526822F003021F
:1038A00000D019464A604FF00001418541864FF033
:1038B000010180F84110416C41F00801416430BCC5
:1038C000FEF72ABB003800400034004010B5806B82
:1038D000FEF7F6F910BD7CB50168044688680090D3
:1038E00094F841000125042834D10098C00718D06D
:1038F0004868C043400614D4C9682046E26A118073
:10390000E16A891CE162618E491E6186618E41B95E
:1039100001684A6822F060024A6080F84150FEF770
:1039200065FC0098400615D520684168C9438906A2
:1039300010D4416821F0600141602068C16880684E
:10394000019084F84150606C40F0020060642046B1
:10395000FEF7E2FA94F84100032834D1009880077A
:1039600019D521684868C043000614D4626A20460D
:103970001288CA60616A891C6162618D491E618515
:10398000618D41B901684A6822F0A0024A6080F85E
:103990004150FEF72CFC0098000714D520684168C0
:1039A000C94389060FD4416821F0A0014160206815
:1039B0008068009084F84150606C40F004006064BE
:1039C0002046FEF7A9FA7CBD2DE9F0411C461746BA
:1039D00088460546FDF70CFD064607E0601C05D04D
:1039E000FDF706FD801BA0420BD254B12868816808
:1039F00038EA01000DD00020B842EFD10020BDE828
:103A0000F081012085F84100002085F84000032066
:103A1000F5E70120F0E700000D4808B5016841F422
:103A2000001101600068002200F4001000901146AF
:103A30000E20FEF745FC0E20FEF734FC0022114656
:103A40000F20FEF73DFCBDE808400F20FEF72ABC22
:103A50003038024010B504490448FDF7C3F9024963
:103A6000491E087010BD000056000020D4700008E8
:103A700030B587B014216846FCF7CAFE26480025F9
:103A8000016841F004010160016801F00401059141
:103A9000016841F080010160016801F08001059139
:103AA000016841F001010160016801F00101059127
:103AB000016841F010010160016801F010010591F9
:103AC000016841F002010160016801F00201059105
:103AD000016841F0080101600068012400F008005D
:103AE00005904FF40050CDE90005694602940B485B
:103AF000FDF77CFBCDE90045694609480294FDF7D6
:103B000075FB2002CDE90005694602940548FDF7E2
:103B10006DFB07B030BD00003038024000080240A5
:103B200000000240001002400D4810B50B49016032
:103B30000C49416000214FF480428160C0E90312CA
:103B400041618161C1610162FDF758FC002803D029
:103B5000BDE81040FDF744B910BD0000005400401E
:103B600074000020A08601000C490D4810B54A15CC
:103B7000C0E9001200218160C0E903124FF47A52BB
:103B8000C0E90521C16101210162FEF7D9F90028D0
:103B900003D0BDE81040FDF723B910BD0038004048
:103BA000C80000200648054901600021416081608D
:103BB000C16001614161816170470000002C0140DA
:103BC0007C430020FEE7FEE770B502F0DFFD322007
:103BD000FDF7FAFA0B4D0C4E0024305D02F032FE78
:103BE00010B10020687070BD641C1C2CF5D301203E
:103BF0006870FCF719FF02F021FDBDE8704002F08B
:103C000027BC00004C000020B570000870B50D4CBA
:103C10006078002815D0FDF7EBFB0546FCF704FFA4
:103C200006462078864203D16068281AC82808D33F
:103C3000304602F003FD02F00BFC002801D1267093
:103C4000656070BD4C00002070470A6842624A6897
:103C50008262D1E902231A43D1E904310B43C16ADC
:103C60001A4321F0F7011143C16200207047006838
:103C700000F0030070470844406970470148FEF7B0
:103C8000ABBF00007C43002070B50DF1100C114358
:103C90009CE870002343194329434268314347F6A7
:103CA000FF639A430A434260002070BD0321016014
:103CB00000207047D0F8800070470A688260D1E920
:103CC00001231A43D1E903310B43C1681A436FF34F
:103CD0000B011143C160002070470968C0F88010D3
:103CE0000020704710B585B004463720CDE900109C
:103CF00040200290002003904FF4806004906946B9
:103D00002046FFF7DAFF41F288323721204600F0E3
:103D10006BF905B010BD000010B504460A4885B027
:103D200001432920CDE9001040200290002003909B
:103D30004FF48060049069462046FFF7BEFF20469E
:103D400000F00AFA05B010BD0000108010B585B073
:103D500004461020CDE9001040200290002003907E
:103D60004FF48060049069462046FFF7A6FF41F2B9
:103D700088321021204600F037F905B010BD000050
:103D800030B585B000240546009401944FF480605E
:103D90000294CDE9034069462846FFF78EFF0B48A1
:103DA0004FF4FA510068B0FBF1F041F2883148431A
:103DB000401E03D24FF0004005B030BD696B0906CC
:103DC000F6D5C520A8632046F6E70000680000206D
:103DD00010B585B004464FF4D570009008200190CE
:103DE00040200290002003904FF4806004906946C8
:103DF0002046FFF762FF204600F014FA05B010BD20
:103E000010B585B004461220CDE900104020029084
:103E1000002003904FF48060049069462046FFF72D
:103E20004CFF41F288321221204600F0DDF805B047
:103E300010BD10B585B004461120CDE9001040201A
:103E40000290002003904FF4806004906946204661
:103E5000FFF733FF41F288321121204600F0C4F809
:103E600005B010BD10B585B004460720CDE900208F
:103E700040200290002003904FF480600490694637
:103E80002046FFF71AFF41F288320721204600F052
:103E9000ABF805B010BD10B585B004460021022076
:103EA000CDE90010C020CDE902014FF480600490FC
:103EB00069462046FFF701FF204600F025F905B0CE
:103EC00010BD10B585B004460920CDE90010C02012
:103ED0000290002003904FF48060049069462046D1
:103EE000FFF7EBFE204600F00FF905B010BD10B54E
:103EF00085B004460D20CDE900104020029000203E
:103F000003904FF48060049069462046FFF7D5FE89
:103F100041F288320D21204600F066F805B010BD50
:103F200030B585B00C46054600210320CDE90010D0
:103F30004020CDE902010001049069462846FFF7C0
:103F4000BCFE22460321284600F028F905B030BD0A
:103F500010B585B0044600210C20CDE900104020AA
:103F6000CDE902010001049069462046FFF7A5FE55
:103F7000034A0C21204600F037F805B010BD0000C0
:103F800000E1F50510B585B004461920CDE9001013
:103F900040200290002003904FF480600490694616
:103FA0002046FFF78AFE41F288321921204600F0B0
:103FB0001BF805B010BD10B585B004461820CDE93A
:103FC000001040200290002003904FF48060049085
:103FD00069462046FFF771FE41F2883218212046DB
:103FE00000F002F805B010BD454B10B51B684FF44A
:103FF000FA54B3FBF4F353435B1E02D24FF000407C
:1040000010BD426B12F0450FF6D01205F4D4426B8E
:10401000520703D504218163084610BD426BD207C5
:1040200002D00121816305E0C52282630269D2B218
:104030008A4201D0012010BD0021FFF71CFE31494A
:10404000084201D1002010BD002802DA4FF00070B4
:1040500010BD410001D5402010BD810001D5802058
:1040600010BDC10002D54FF4807010BD010102D512
:104070004FF4007010BD410102D54FF4806010BDB7
:10408000C10102D54FF4006010BD010202D54FF40A
:10409000805010BD410202D54FF4005010BD810286
:1040A00002D54FF4804010BDC10202D54FF400404C
:1040B00010BD410302D54FF4003010BD810302D57D
:1040C0004FF4802010BDC10302D54FF4002010BD75
:1040D000010402D54FF4801010BD410402D54FF405
:1040E000001010BD810402D54FF4800010BD000700
:1040F00002D54FF4000010BD4FF4803010BD000019
:104100006800002008E0FFFD12494FF4FA520968E8
:10411000B1FBF2F141F288325143491E02D24FF015
:1041200000407047426B12F0450FF6D01205F4D4F0
:10413000416B490703D50421816308467047416BF1
:10414000C90703D00121816308467047C5218163F7
:1041500000207047680000200F494FF4FA520968A8
:10416000B1FBF2F141F288325143491E02D24FF0C5
:1041700000407047426B12F0450FF6D01205F4D4A0
:10418000416B490703D50421816308467047C52167
:1041900081630020704700006800002030B5204B8C
:1041A0004FF4FA541B68B3FBF4F341F288346343D1
:1041B0005B1E02D24FF0004030BD446B14F0450F3F
:1041C000F6D02405F4D4436B5B0703D50421816347
:1041D000084630BD436BDB0702D00121816303E059
:1041E0000369DBB28B4201D0012030BDC521816360
:1041F0000021FFF740FD10F4604F04D0410406D5C4
:104200004FF4005030BD000C1080002030BD000481
:1042100002D54FF4805030BD4FF4803030BD0000E7
:104220006800002014494FF4FA520968B1FBF2F11A
:1042300041F288325143491E02D24FF0004070478C
:10424000426B12F0450FF6D01205F4D4416B4907CA
:1042500003D50421816308467047416BC90703D029
:104260000121816308467047416B490601D5402111
:1042700081630020704700006800002010B5064CE4
:1042800001202070FCF750FC18B9207820F00100C4
:104290002070207810BD00005400002010B5846B01
:1042A00040F23A50216888632046FEF77FFC0121E6
:1042B00084F8341000212163062801D0052805D197
:1042C0002068FFF745FEA16B0843A063A06B0028A0
:1042D000204602D0FEF78AFB10BDFEF783FB10BD1F
:1042E00010B5846B40F23A50216888632046FEF78F
:1042F0005DFC012184F8341000212163062801D0DF
:10430000052805D12068FFF723FEA16B0843A063B1
:10431000A06B0028204602D0FEF768FB10BDFEF718
:1043200061FB10BD10B590B004460120ADF8380017
:104330002068FFF79CFC002854D0606C032842D012
:104340002068FFF7A8FD00284AD100212068FFF768
:1043500092FC606704212068FFF78DFCA0670821AC
:104360002068FFF788FCE0670C212068FFF783FCDA
:10437000C4F88000606C032825D00EA92068FFF7E0
:10438000CFFD00282CD1606C03281CD0BDF838006C
:10439000206501042068FFF794FD002820D100214A
:1043A0002068FFF768FC606604212068FFF763FC63
:1043B000A06608212068FFF75EFCE0660C212068FB
:1043C000FFF759FC206704212068FFF754FC000D1B
:1043D000E06403A92046FEF70BFB30B14FF080509C
:1043E00010B010BD4FF08060FAE7B4F85000002321
:1043F00002042068FFF736FD0028F1D104F1100017
:1044000007C88DE8070094E80F00FFF73DFC002087
:10441000E6E700002DE9F84F0026044600963546F1
:10442000B0460068FFF7ACFC002827D12068FFF7F2
:10443000CFFC4FF0805B4FF001094FF6FF7748B19A
:10444000A6642068FFF79CFC002817D1A06C012807
:1044500002D020E0C4F8489000212068FFF742FC19
:1044600058B918E000212068FFF73CFC002805D16E
:1044700051462068FFF750FC10B15846BDE8F88F50
:1044800000212068FFF7F7FB05464FEAD078009837
:10449000401C009002E0DFF82CA00098B84202D245
:1044A000B8F1000FDED00098B84202D34FF0807010
:1044B000E4E7680002D5C4F8449000E06664002098
:1044C000DCE70000000010C170B5064C0546012075
:1044D0002070FCF735FB18B92846FFF7CFFE207097
:1044E000207870BD5400002010B5124888B01446E2
:1044F0000078C00702D0032008B010BDC1B1012967
:1045000005D0022908D003290CD00420F4E768461E
:10451000FCF704FB06980AE06846FCF7FFFA0798E8
:10452000208005E06846FCF7F9FA0798400A206009
:104530000020E1E75400002070B51D4616460846ED
:104540000124A31E2A463146FCF710FB28B900BF00
:10455000FCF7EAFA0028FBD10024204670BDFFF7E3
:104560008DBE000070B51D46164608460124A31EE8
:104570002A463146FCF70CFB28B900BFFCF7D4FAF9
:104580000028FBD10024204670BD7047FDF730BEE7
:1045900030B593B030216846FCF73AF914210CA8E5
:1045A000FCF736F91D480025016841F08051016093
:1045B000006800F0805011901948016841F4804172
:1045C00001600068022400F48040119001200390F3
:1045D00010200490009406940820CDE90750A820EC
:1045E000CDE9090407200B906846FEF745F808B1AD
:1045F00072B6FEE70CA90F2081E831004FF4A050FD
:104600000F904FF48050109005210CA8FDF758FF33
:10461000002801D072B6FEE713B030BD403802402A
:10462000007000400248016841F470010160704769
:1046300088ED00E0FEE700002DE9F0471D46044646
:10464000164601FB05F070434FEAD0088CB003FB1F
:1046500006F00F46C0F3CF092C2218A16846DDF8FA
:1046600050A0FCF781F82C2269462046FCF737F869
:104670000AF12401201D02F0DEF9294604F116009A
:1046800002F0D5F9394604F1180002F0D4F9414698
:1046900004F11C0002F0CFF9494604F1200002F0B9
:1046A000C6F9314604F1220002F0C1F9514604F185
:1046B000280002F0C0F90CB0BDE8F0875249464628
:1046C0000000000057415645666D74201000000040
:1046D00001000100803E0000007D0000020010008B
:1046E00064617461000000002DE9F84388461E46AD
:1046F000174604460021089D00F040FF00280ED117
:1047000033463A4641462046009500F00AF8002814
:1047100005D12046E168BDE8F84300F02FBFBDE8B1
:10472000F88330B58DB004461098002500900C95A4
:1047300001A8FFF781FF0CAB2C2201A9204601F054
:1047400049FA002803D10C982C2802D001200DB082
:1047500030BD0020FBE70907090E002804DB00F14B
:10476000E02080F80014704700F00F0000F1E02016
:1047700080F8141D704730380A2801D20120704794
:10478000002070472DE9F84380460E460020510076
:10479000009015460C461948FCF718F800F0B6FED4
:1047A0001748C07A98B122466B461449154801F063
:1047B00021F930B100F064F921461048FCF706F801
:1047C00005E00098B0EB450F01D200F059F9002444
:1047D0000A4F0FE038F9140037F9141000EBD070CD
:1047E000401001EBD17100EB610002F075F926F881
:1047F0001400641CAC42EDD3BDE8F883F83A002005
:1048000008000020000400202DE9F047484C0B462A
:10481000E17906296FD2DFE801F08303355D626F2D
:10482000A146E76980461E46154600241EE0391958
:10483000962048436422B0FBF2F01DB1B0FBF5F2C4
:1048400005FB12001822B1FBF2F138F91000C9077C
:1048500001D0404200B200EB8000C11700EB917024
:10486000801002F039F926F81400641CAC42DED343
:1048700078193021B0FBF1F201FB1201C9F81C10CC
:10488000BDE8F08780461E46174600251FE000BFA2
:10489000DFF8A0A0A26938F915103AF9120000EB70
:1048A000D07001EB6000814602F016F926F8150081
:1048B000484602F011F9A1692AF81100491C4FF489
:1048C000C860B1FBF0F200FB12106D1CA061BD428C
:1048D000DED3D5E7BDE8F0471946FFF753BF002107
:1048E00006E000BF21F00104045B23F81140491CDD
:1048F0009142F7D3C4E713E000210EE0B4F9106051
:1049000030F9115006EB46063544EE1705EB967567
:10491000AD10258223F81150491C9142EED3AFE728
:10492000BDE8F047014652001846FBF7D8BE00002C
:10493000080000203006002070B504468188006819
:10494000FCF74CFD0546FCF753FDE179A94201D087
:10495000E571A060A168401A192804D3A079A84283
:1049600001D0A5710DB1002070BD012070BD000007
:1049700010B504460020E070401EE062204601F0C1
:1049800025FD08B1042010BD04F22E2001F0D4FC56
:10499000A0F52A41553901D0032010BD94F830000C
:1049A000E92805D0EB2814D194F83200902810D1D2
:1049B00004F1660001F0B5FC0749B1EB002F06D009
:1049C00004F1820001F0ADFC0449884201D10020CD
:1049D00010BD022010BD0000004641544641543332
:1049E000F0B50022144D134605EB021426685EB1A3
:1049F0000768BE4209D166688768BE4205D1A468CF
:104A00004669B44204D000E00123521C022AEBD3D1
:104A1000022A01D069B904E04BB9022907D012205B
:104A2000F0BD05EB02108089B0F5807F01D0002039
:104A3000F0BD1020F0BD00003046002030B5002150
:104A4000054B0C4603EB01121568854200D114603A
:104A5000491C0229F6D330BD304600200268490ABD
:104A6000C06A5289B1FBF2F1001D04C81AB191422B
:104A700003D3891AF8E7002070470068084470479C
:104A800010B5044CE07A10B1034800F063FD00203B
:104A9000E07210BD08000020000400204269891E59
:104AA000921E8A4201D800207047826A408901FB29
:104AB000002070472DE9F04105680F00804606D0C0
:104AC00001F000FB022809D20120BDE8F081EE6868
:104AD00016B16869B04207D8012605E0411CF4D040
:104AE00069698142F1D83E4634466869641CA04237
:104AF00002D80224022E0AD32146404601F0E2FAEF
:104B000038B10128E1D0411CDFD0B442EDD1002002
:104B1000DBE74FF0FF3632462146284601F012FF10
:104B200030B957B122463946284601F00BFF20B173
:104B300001280FD001242046C7E7EC60D5E9040125
:104B4000891E884201D8401E2861287940F0010062
:104B50002871F0E73446EEE72DE9F0410E462430A7
:104B60000D6804460B22202101F010FC00200146B4
:104B700008272A5C401C202A12D92F2A0BD05C2A35
:104B800009D02E2A01D0B94214D30B2F22D02E2ABD
:104B900020D10CE0401C2B5C2F2BFBD05C2BF9D0E0
:104BA00028443060B1B12078E5281FD020E00821EA
:104BB0000B27DEE7802A03D3114B1A4412F8802C0E
:104BC00010A300E05B1C93F800C0BCF1000F04D000
:104BD0009445F7D10620BDE8F081A2F16103192BBD
:104BE00001D8203AD2B26254491CC2E70520207095
:104BF000202A01D8042000E00020E0720020EAE72B
:104C000008710008222A2B2C3A3B3C3D3E3F5B5D5D
:104C10007C7F00000A4847F6FF71CA43018042804A
:104C20008180C280018142810021C16001614161B6
:104C30008161C1610162416420212430FBF7E8BD3C
:104C4000B0120020F0B50CB22449B0F90030B0F930
:104C500002204D6C102D12D206880EB9478877B10C
:104C600001EB4505AE844D6C6D1C4D64102D06D2D4
:104C700001EB45054088A884486C401C4864B1F9A4
:104C80000000984200DD0B80B1F90200984200DA82
:104C90004B80B1F90400904200DD8A80B1F9060032
:104CA000904200DACA80B1F90800A04200DD0C8110
:104CB000B1F90A00A04200DA4C8113B1C868401C67
:104CC000C86012B10869401C086114B14869401CF1
:104CD00048618869401C8861F0BD0000B012002066
:104CE000F0B59BB0074612A100F03EF80024154D28
:104CF000264600BF8DF86860285D1AA9FCF748F8C1
:104D00009DF8681088B110A0CDE900012B5D10A2BC
:104D1000602102A8FBF72EFB02A9384600F024F818
:104D2000641C1C2CE6D31BB0F0BD08A0ECE700000F
:104D30004553383338382072656769737465727308
:104D40000D0A0000FE6F00084552522F00000000BF
:104D50007265675F3078253032583D25733078258D
:104D60003032580D0A00000038B50546002000908A
:104D70000C460846FBF794FC02466B462146284643
:104D800000F028FF38BD000010B5ADF52A7D0021E8
:104D900004468DF89C128DF8A0128DF8A4120A22F8
:104DA0006DA103A800F020FD002873D16DA103A818
:104DB000FFF7DAFF6FA373A260218FA8FBF7DAFA7F
:104DC0008FA903A8FFF7D0FF234670A260218FA808
:104DD000FBF7D0FA8FA903A8FFF7C6FF6E4C6FA2AE
:104DE00060218FA86369FBF7C5FA8FA903A8FFF7B5
:104DF000BBFF01F0E7F903466EA260218FA8FBF725
:104E0000B9FA8FA903A8FFF7AFFF6FA370A26021C3
:104E10008FA8FBF7AFFA8FA903A8FFF7A5FFE379E7
:104E200070A260218FA8FBF7A5FA8FA903A8FFF74E
:104E30009BFF21786078CDE90001A3786DA2602105
:104E40008FA8FBF797FA8FA903A8FFF78DFF734888
:104E5000416C009190F8413071A260218FA8FBF75E
:104E600089FA8FA903A8FFF77FFF2079A2796179DA
:104E70008DE80700E378734A60218FA8FBF77AFA80
:104E80008FA903A8FFF770FF6F4CD4E90701CDE9A4
:104E9000000100E05CE06DA260218FA8A369FBF730
:104EA00069FA8FA903A8FFF75FFFE168B4F9020070
:104EB000CDE90001B4F9003071A260218FA8FBF7A1
:104EC00059FA8FA903A8FFF74FFF2169B4F906002B
:104ED000CDE90001B4F9043074A260218FA8FBF77A
:104EE00049FA8FA903A8FFF73FFF6169B4F90A00E7
:104EF000CDE90001B4F9083078A260218FA8FBF752
:104F000039FA8FA903A8FFF72FFF03A800F01AF9B9
:104F1000A9AAA8A9A7A8FBF7ADFE03469DF89C0285
:104F20009DF8A4229DF8A0128DE8070076A26021CA
:104F30008FA8FBF71FFA8FA903A8FFF715FF03A897
:104F4000FFF7CEFE03A800F0FEFD03A800F002FB71
:104F50000DF52A7D10BD000064656275672E7478BA
:104F600074000000617564696F2064656275670D87
:104F70000A0000006475616C2D6D69782D763133FF
:104F80000000000066773D25730D0A006576656EAA
:104F9000743D25730D0A0000080000207265636FE0
:104FA000726465645F62797465733D256C750D0A82
:104FB000000000007265636F72645F66696C653D36
:104FC00025730D0A000000006C6566740000000087
:104FD0007265636F72645F6368616E6E656C3D25B8
:104FE000730D0A0066785F6D6F64653D25640D0A78
:104FF0000000000068616C5F726573756C743D251C
:10500000642066696C655F726573756C743D2564B8
:105010002073746174653D25640D0A00C80000208A
:105020006932735F73746174653D256C75206932F4
:10503000735F6572726F723D30782530386C580D31
:105040000A000000E0710008B012002073616D706A
:105050006C65733D256C752068616C665F63616C7F
:105060006C6261636B733D256C752066756C6C5F5B
:1050700063616C6C6261636B733D256C750D0A0036
:105080006C6566745F6D696E3D2564206C65667441
:105090005F6D61783D2564206C6566745F6E6F6E30
:1050A0007A65726F3D256C750D0A0000726967683C
:1050B000745F6D696E3D25642072696768745F6D09
:1050C00061783D25642072696768745F6E6F6E7ADF
:1050D00065726F3D256C750D0A0000006D6F6E6F77
:1050E0005F6D696E3D2564206D6F6E6F5F6D6178D9
:1050F0003D2564206D6F6E6F5F6E6F6E7A65726FA7
:105100003D256C750D0A00007665726966795F65EC
:1051100072726F723D2575207265673D307825305B
:1051200032582065787065637465643D3078253049
:1051300032582061637475616C3D30782530325887
:105140000D0A000070B51F4D9CB006461EA26021DE
:1051500004A86B6CFBF70EF904A93046FFF704FEB8
:10516000002429E0E01C814203D905EB4400408D76
:1051700000E00020A21C914203D905EB4402128DED
:1051800000E00022631C994203D905EB4401C98C5D
:1051900000E0002105EB44039B8CCDE90031CDE913
:1051A000022023460EA2602104A8FBF7E3F804A91D
:1051B0003046FFF7D9FD241D696CA142D2D81CB03E
:1051C00070BD0000B01200207261775F776F72646B
:1051D000735F636F756E743D256C750D0A0000007A
:1051E0007261775F2530326C753D2530345820254B
:1051F000303458202530345820253034580D0A00DA
:10520000401E022812D20A4901EB00118889B0F52C
:10521000807F05D008B1401E80B2888110B103E0C4
:105220000020FAE700200860002070470220704745
:10523000304600202DE9F04104460021056800F0C9
:10524000D8F8002826D12846E16901F0BFF802000D
:105250001FD1206A017899B1C17A01F03F01A17193
:10526000C17A09070FD404F124010B2610F8013B81
:1052700011F8017BDB1B761E04D0002BF6D002E078
:10528000042206E02BB10021204600F005F80200C0
:10529000D9D01046BDE8F0812DE9F04705464769B1
:1052A0000468C0698946203710B1B7F5001F02D3E2
:1052B0000420BDE8F087F90560D1401CE861A969C8
:1052C0004FF0000829B16089401E10EA572F05D021
:1052D00054E02089B0EB571F1DD94FE0284600F05D
:1052E000F1FE064601281BD9701C33D06069B0421C
:1052F0003ED8B9F1000F0ED02846A969FFF7DAFBB6
:1053000006000BD0012E0BD0701C23D0204601F0DC
:10531000A3FDF8B906E0C5F81C80C9E70720C8E777
:105320000220C6E74FF40072002104F1300001F0C2
:105330002DF84FF0000831462046FFF7AFFB4FF045
:105340000109E0620DE000BF84F80390204601F0FF
:1053500083FD08B10120ACE7E06A08F10108401CB8
:10536000E06261894145EFD8E16AA1EB0800E062A3
:1053700031462046AE61FFF791FBE861C7F30800B4
:10538000204430306F612862002092E770B50446F7
:105390000021066800F02DF80DE03046E16901F0CB
:1053A00015F850B9206A0078E52809D040B10121EC
:1053B0002046FFF771FF0028EFD0042807D007E050
:1053C0003046E16901F002F8050003D00FE0072044
:1053D00005460CE020220021206A00F0D7FF0B22B6
:1053E00004F12401206A00F0C8FF0120F070284673
:1053F00070BD2DE9F04107680E460546B1F5001F66
:1054000036D2F00634D16E61AC6824B938780328FE
:1054100005D37C6A1CB178894FEA402812E03889AC
:10542000B0EB561F24D9786A12E0284600F04AFEF5
:105430000446401C1AD0022C1AD37869A04217D90E
:10544000A6EB080646452146EFD23846FFF726FB75
:10545000C5E9064060B100EB5620E861C6F30800DC
:105460003844303028620020BDE8F0810120FBE79D
:105470000220F9E770B5094C05460020615D00295E
:105480000AD104EB850160194968007A09688847E8
:10549000002801D10121615570BD00005046002057
:1054A00030B4054C231804EB80001B7A4068046973
:1054B0001846A44630BC60475046002030B4054D25
:1054C0002C1805EB8000247A406885682046AC469D
:1054D00030BC604750460020044A111802EB80009F
:1054E000097A40684268084610470000504600208C
:1054F00030B4054D2C1805EB8000247A4068C5684F
:105500002046AC4630BC60475046002070B50D4C7C
:10551000E07A217B084313D1012525732A460AA18D
:105520000B4800F061F900280AD12C21084800F04E
:1055300025F820B1BDE87040054800F00BB8E572D1
:1055400070BD0000080000206D69782E776176003C
:105550000004002038B5044600F0F5FA00280CD10C
:105560006946204601F0A1FC002806D12069FFF71A
:1055700047FE002801D10021216038BD2DE9FE4FF2
:105580000D460446694601F090FC070064D1677D32
:10559000002FFBD1E06A4FF0020A4FF0010804F13E
:1055A000300B00286AD0691C29D0E068A84200D2DC
:1055B0000546A561002D4FD02046691EFFF74EFA23
:1055C0000146E0610098FFF769FA002875D000995C
:1055D0006D1E4A89521E02EA55221518208BC005FD
:1055E000E9D0226AAA42E6D0207D00063BD5487861
:1055F00001235946FFF77CFF00286ED12FE002C837
:105600000191A16883460225F1B10026AD1C0291EB
:1056100089462046761C00F055FD014601284CD9EC
:10562000481C5AD009F101008142F1D0019885420D
:1056300006D8CBF800600BF10400029A04C0834640
:10564000009840698842E0D8E06A05600198854288
:1056500003D80021CBF8001097E0112795E0207DBA
:1056600000F07F002075009801232A4640785946B3
:10567000FFF724FF002830D1256286E0E068A842C9
:1056800003D2217D890700D405464FF00009A069A7
:10569000C4F8189005B3009949894E0270B1691E8B
:1056A000B1FBF6F2401EB0FBF6F18A4206D3711E42
:1056B0008843A0612D1AE1690DE04FE0A16849B966
:1056C00000212046FFF7F6F90146012846D0481C84
:1056D00055D0A160E161D9B927E050E0A069AD1BC8
:1056E0003044A061207D8007204605D5FFF7E2F910
:1056F000010004D100250DE000F0E4FC0146481C47
:105700003DD001292AD900984069884226D9E16113
:10571000B542E3D8A0692844A061E80505D0009807
:10572000FFF7BCF9D0B100EB5529E168A0698842C8
:1057300004D9E060217D41F040012175C00524D0ED
:10574000226A4A4521D0207D000610D50098012309
:1057500059464078FFF7CCFE88B904E084F815A0DC
:105760000220BDE8FE8F207D00F07F0020750098AC
:1057700001234A4640785946FFF7A0FE18B184F845
:1057800015800120EDE7C4F820903846E9E70000D5
:105790002DE9F74181B0904602980090684600F0EC
:1057A000F2FC040003D50B2004B0BDE8F0810D4EDF
:1057B000002756F824501DB12846FFF73FF92F70F7
:1057C0000198002800D0077046F8240002D0B8F1F4
:1057D000010F01D00020E7E7002201A902A800F094
:1057E0000DFBE1E7700000202DE9F74392B00500C2
:1057F0000BD002F03F063246694613A800F0FEFACD
:1058000004004FF0000804D0ECE0092015B0BDE81A
:10581000F0830098049004A8139900F019FC040088
:105820000ED19DF83F00000601D5062408E070085F
:1058300001D0012100E0002104A8FFF7D1F80446BF
:1058400016F01C0F5DD04FF00109C4B1042C10D12B
:105850000020674902E0401C022804D201EB00123C
:105860001268002AF7D1022807D004A8FFF78EFD9E
:10587000044646F008065CB1B4E01224B2E09DF89C
:10588000160010F0110F47D1700701D50824A9E0C8
:10589000300747D500F075FC07460C9839460E30A6
:1058A00001F044F90C983946163001F03FF90C9894
:1058B0002021C1720C99009800F020FD07460022BB
:1058C0000C99009801F01EF90C9800211C3001F091
:1058D0002DF9009981F8039017B3D1F82C9000228C
:1058E000394604A801F0AFF804007BD1494600987E
:1058F00000F06CFD04000098A7F10107C7600DD00F
:1059000070E0ECBB9DF81600C10601D5042469E0E7
:10591000B10703D5C00701D0072463E0300701D5E4
:1059200046F040060098C06A68620C98A862700849
:1059300001D0012100E0002104A800F057FC2861FB
:10594000B8B30C99009800F0D9FCA8600C981C30F2
:1059500000F0E7FCC5F82C80E86000992960009908
:1059600005F130004FF40072C988A9802E7585F8C2
:105970001580C5F8208000218146C5F8188000E018
:1059800030E000F003FDB0062ED5EE6866B3AE61E0
:105990000098A968408947020FE0284600F092FB72
:1059A0000146012800D80224481C03D0F61B24B16C
:1059B00005E01BE00124F61B01E0BE42EDD8E961E1
:1059C00084B9F00510D00098FFF768F870B100EBCB
:1059D00056222A620098012349464078FFF76EFD5F
:1059E00010B10124C5F8008020460FE70224F9E732
:1059F000304600202DE9FE4F884600211960994667
:105A00001546044602A901F050FA002812D1607D23
:105A100000280FD1207DC0070BD0E168A0690127C5
:105A2000081A4FF0020A04F1300B854200D90546EE
:105A300084E00720BDE8FE8FA169C80566D1029801
:105A40004089401E10EA512611D129B1E06A28B1DF
:105A50002046FFF703F805E0A06803E02046E1696F
:105A600000F030FB02281BD3411C4AD0E061E16901
:105A70000298FFF713F898B130440190680A00903B
:105A800025D0029932184889824201D9801B0090A2
:105A9000DDE9003248784146FFF710FD88BB03E09E
:105AA00084F815A00220C5E7207D00060CD5216AE8
:105AB0000198081A0099884206D208EB40204FF45A
:105AC0000072594600F059FC009846022CE0226A08
:105AD0000198824218D0207D00060AD50298012341
