:020000040800F2
:10000000680800202902000877260008112300084C
:1000100075260008CB040008A53100080000000088
:10002000000000000000000000000000FB3000089D
:10003000610500080000000079260008FD30000876
:10004000430200084302000843020008430200087C
:10005000430200084302000843020008430200086C
:10006000430200084302000843020008430200085C
:100070004302000843020008CD040008D904000828
:10008000430200084302000843020008430200083C
:10009000430200084302000843020008430200082C
:1000A000430200084302000843020008430200081C
:1000B000430200084302000843020008430200080C
:1000C00043020008430200084302000843020008FC
:1000D00043020008430200084302000843020008EC
:1000E00043020008430200084302000843020008DC
:1000F00043020008430200084302000843020008CC
:1001000043020008AD26000843020008430200082D
:1001100043020008430200084302000843020008AB
:10012000430200084302000843020008430200089B
:10013000430200084302000843020008430200088B
:10014000430200084302000843020008430200087B
:10015000430200084302000843020008430200086B
:10016000430200084302000843020008430200085B
:100170004302000843020008430200080000000098
:10018000430200084302000800F002F800F03CF8C7
:100190000AA090E8000C82448344AAF10107DA45E2
:1001A00001D100F031F8AFF2090EBAE80F0013F0F8
:1001B000010F18BFFB1A43F0010318476C30000011
:1001C0008C300000103A24BF78C878C1FAD85207A2
:1001D00024BF30C830C144BF04680C6070470000C1
:1001E0000023002400250026103A28BF78C1FBD840
:1001F000520728BF30C148BF0B6070471FB502F0DF
:10020000F3FF1FBD10B510BD00F0CFF81146FFF78A
:10021000F5FF02F0D8FF00F0EDF803B4FFF7F2FFAE
:1002200003BC00F0F5F80000094880470948004782
:10023000FEE7FEE7FEE7FEE7FEE7FEE7FEE7FEE796
:10024000FEE7FEE704480549054A064B70470000F3
:100250009531000889010008680200206808002024
:10026000680400206804002053EA020C00F0698052
:100270002DE9F04B4FF00006002B1FBFB3FA83F5BA
:1002800003FA05F424FA05F65E4012BF1643B2FAEB
:1002900082F502FA05F4C5F120051EBF22FA05FC1D
:1002A00044EA0C04203556EA044C4FEA144418BFC3
:1002B000641C4FF000084FF00009904271EB030CF2
:1002C00039D3002919BFB1FA81F701FA07F6B0FA5C
:1002D00080F700FA07F6C7F120071EBF20FA07FCD7
:1002E00046EA0C062037B6FBF4FCA7EB0507103FE7
:1002F00007F01F0BCBF120060CFA0BFB2CFA06F6CD
:1003000044BFB3460026202FA4BF5E464FF0000B2B
:100310005BEA060C08BF4FF0010B19EB0B09ABFBB6
:10032000027C48EB0608C01B06FB02CC0BFB03CC8F
:1003300071EB0C01C1E70B46024641464846BDE859
:10034000F08B13B54FF000004FF00001AFF30080C9
:10035000BDE81C4070474FF0000200B513469446BC
:100360009646203922BFA0E80C50A0E80C50B1F10D
:100370002001BFF4F7AF090728BFA0E80C5048BF21
:100380000CC05DF804EB890028BF40F8042B08BFBF
:10039000704748BF20F8022B11F0804F18BF00F8BB
:1003A000012B7047704770477047754600F02CF876
:1003B000AE4605006946534620F00700854618B052
:1003C00020B5FFF73FFFBDE820404FF000064FF09B
:1003D00000074FF000084FF0000B21F00701AC467A
:1003E000ACE8C009ACE8C009ACE8C009ACE8C00999
:1003F0008D46704710B50446AFF300802046BDE837
:100400001040FFF70ABF00000048704704020020B8
:1004100001491820ABBEFEE7260002007047704776
:100420000146014801F0C0BB7401002010B504482A
:1004300001F0CCFB042801D0012010BD002010BD2C
:100440007401002010B500F015F8012801D001203A
:1004500010BD074801F0D4FC040006D14FF4006140
:10046000034801F047FA00B10124204610BD000006
:100470007401002008B501208DF800009DF80000EF
:1004800008BD000038B50024009313460A46014613
:10049000034801F059FD00B10124204638BD000099
:1004A000740100207047000038B500240093134603
:1004B0000A460146034801F03FFE00B101242046F0
:1004C00038BD0000740100207047FEE7014800F0CD
:1004D0007FB80000B4000020014800F079B80000A7
:1004E0001401002001681823CAB2103AB2FBF3F2DB
:1004F000054B6FF30901032A9B5CC36500D9091DF5
:1005000081650846704700000832000810B50146B2
:1005100000208B698A6A4FF0C07453B1B3F5005F55
:1005200015D072B1012A0CD0022A0AD0032A09D1AF
:1005300004E01AB1012A06D0022A03D1C96AC9010E
:1005400000D5012010BDC96AA142FAD010BD002A11
:10055000F7D0012AF2D0022AF3D0032AF3D010BD3B
:10056000704772B6FEE70022AFF3008030B50E4B45
:10057000054601205C7A002C14D1587A1C54587A14
:1005800003EB800045605D7A03F108002A54587A35
:10059000421C5A72303008703A2048702F20887000
:1005A000CC70002030BD0000F801002090F835101C
:1005B000022903D08021416501207047052180F880
:1005C00035100068016821F00101016000207047CA
:1005D0002DE9F84304464FF00009CDF80090634838
:1005E0004FF41651A56D0068B0FBF1F72E6894F832
:1005F0005C10082000FA01F131420FD021680A682E
:1006000052070BD50A6822F004020A6094F85C10C5
:100610008840A860606D40F00100606594F85C104F
:100620004FF0010808FA01F0304208D0216849690A
:10063000090604D5A860606D40F00200606594F87A
:100640005C1004208840304208D02168096889077E
:1006500004D5A860606D40F00400606594F85C10FB
:1006600010208840304218D021680968090714D545
:10067000A86020680168490304D50068000308D514
:10068000A16C07E00168C90503D4016821F00801E5
:100690000160216C09B12046884794F85C10202045
:1006A0008840304231D021680968C9062DD5A8603C
:1006B00094F8350005282068016806D0490347D51D
:1006C000006800031DD4616C1CE021F0160101607C
:1006D0002068416921F080014161206C08B9A06C5B
:1006E00020B12068016821F00801016094F85C10D5
:1006F0003F208840A86084F8358084F83490216DCC
:100700001FE0E16B09B120468847606D00282BD0BF
:10071000606DC00714D0052084F83500206801689A
:1007200021F0010101600098401C0090B84203D8FC
:1007300020680068C007F6D184F8358084F83490CA
:10074000E16C002910D001B02046BDE8F043084715
:100750000168C905D5D4016821F01001016084F851
:10076000358084F83490CCE7BDE8F883140000208D
:100770002DE9F041044600F06FF906465CB1022015
:1007800084F83500002584F834502068016821F091
:10079000010101600DE00120BDE8F08100F05CF98D
:1007A000801B052805D920206065032084F83500CA
:1007B000F2E720680068C007F0D12268116820487D
:1007C0000140D4E901031843D4E903363343184305
:1007D00063691843A3691843E3691843236A1843FC
:1007E0000843616A042903D1D4E90B131943084370
:1007F000106020684069666A20F0070130460E43A9
:10080000012704280CD1A06A0643E06A40B12046C3
:10081000FFF77CFE20B14020606584F83570BAE7B0
:10082000206846612046FFF75DFE94F85C203F217A
:1008300091408160656584F835700020ACE7000068
:100840003F8010F070B5044600F006F90546601CC4
:1008500002D004480078044400F0FEF8401BA04297
:10086000FAD370BD080000202DE9F84FDFF8BCA1D5
:100870000022012503264FF00F090AF1040BAAF10B
:10088000040E00BF0B6805FA02F42340A34270D1A6
:100890000F7907F00307012F01D0022F16D18768C7
:1008A0004FEA420806FA08FC27EA0C07D1F80CC008
:1008B0000CFA08FC4CEA070CC0F808C04768A743CC
:1008C0000C79C4F3001494403C4344600C79E44335
:1008D000A4070AD0C4684FEA420C06FA0CF7BC43DE
:1008E0008F6807FA0CF72743C7600C7904F00304FC
:1008F000022C12D1D40800EB840CDCF820405707FE
:10090000FF0E09FA07F824EA0804D1F8108008FA63
:1009100007F848EA0408CCF8208004684FEA420C43
:1009200006FA0CF7BC430F7907F0030707FA0CF738
:10093000274307604C6814F4403F70D03C4C276854
:1009400047F480472760246822F0030704F48044BA
:100950000094384C07EB040CDCF8084897074FEA82
:10096000177809FA08F7BC43334FB84202D1002781
:1009700024E054E0314FB84201D101271EE0304F4E
:10098000B84201D1022719E02E4FB84201D1032706
:1009900014E02D4FB84201D104270FE02B4FB8428D
:1009A00001D105270AE02A4FB84201D1062705E008
:1009B000284FB84201D1072700E0082707FA08F7B7
:1009C0002743CCF80878DAF800405746D1F804C03D
:1009D0009C435FEACC2C00D51C433C60DBF8004014
:1009E0005F46D1F804C09C435FEA8C2C00D51C43C1
:1009F0003C60DEF800407746D1F804C09C435FEAD3
:100A00008C3C00D51C433C60084F083F3C68D1F843
:100A100004C09C435FEACC3C00D51C433C60521CA4
:100A2000102AFFF42FAFBDE8F88F0000083C01400A
:100A300044380240003001400000024000040240FF
:100A400000080240000C0240001002400014024066
:100A500000180240001C02400148806870470000F6
:100A60000800002070B5040025D094F83D00002552
:100A700020B984F83C50204600F0B8F8242084F8CF
:100A80003D002068016821F00101016020680168D3
:100A900041F4004101602068016821F400410160D7
:100AA00000F02CFD4D4A6168914201D84C4900E0AC
:100AB0004C49884201D2012070BD4B492368B0FBEC
:100AC000F1F15E6826F03F060E435E606368934274
:100AD00006D94FF4967359434FF47A73B1FBF3F18F
:100AE0002368491C1E6A26F03F063143196261687B
:100AF000914210D84900401EB0FBF1F2521CC2F3E3
:100B00000B02042A01D2042022E0B0FBF1F0401CC9
:100B1000C0F30B001CE0A268F2B301EBC10303EBCE
:100B20000116431EB3FBF6F35B1C43F480431B0525
:100B300049D092B301EBC10202EB0111401EB0FBA0
:100B4000F1F0401CC0F30B0040F4804040F4004042
:100B50002168CA694CF6FF739A431043C861D4E90F
:100B6000071001432068026822F0C00211430160AF
:100B7000D4E9030101432068826848F2FF339A43B5
:100B800011438160D4E9050108432168CA6822F055
:100B9000FF021043C86001E00EE016E02068016823
:100BA00041F0010101602564202084F83D002563A7
:100BB00084F83E50002070BD01EB4106431EB3FB9C
:100BC000F6F35B1CB3E70120C2E701EB4101401ED5
:100BD000B0FBF1F0401CC0F30B00B7E7A0860100AA
:100BE00080841E0000093D0040420F0010B586B011
:100BF000044614216846FFF7AEFB1349206888427B
:100C000020D11248016841F0020101600068694684
:100C100000F002000590C0200090122001900120F9
:100C2000029002200390042004900948FFF71CFE64
:100C300006481030016841F400110160006800F4BA
:100C40000010059006B010BD00540040303802403E
:100C5000000402402DE9FF410446006881680091CC
:100C60007749784E4FF04027884201D1324600E064
:100C70003A469268019240688846029001D1304617
:100C800000E038464068039060684FF00105B0F519
:100C9000007F1CD0D8B1900705D50398000602D577
:100CA000204601F067FB0098C0070FD0029840066D
:100CB0007FD521682046CA68E16A8B1CE3620A80FE
:100CC000618E491E6186618E002967D071E00098AF
:100CD000800719D50298000616D5616A20468A1C3D
:100CE000626222680988D160618D491E6185618DCB
:100CF00051B901684A6822F0A0024A60418E19B9D0
:100D000080F8415000F0A0F80198C00705D0039882
:100D1000400602D5204601F0FDFA0198400622D592
:100D2000039880061FD52168414501D1304600E077
:100D30003846406820F0600101D1304600E0384676
:100D400041602068416821F0A00141602068C168CD
:100D50008068019084F84150606C40F0020060644B
:100D6000204600F072F80098000767D502988006C8
:100D700064D52068416821F0A001416021684145A7
:100D800001D1304600E03846406820F0600000D0D5
:100D90003E46706020688068009043E001684A68C1
:100DA00022F060024A60418D19B980F8415000F08C
:100DB0004BF8009840061ED5029880061BD5206887
:100DC000416821F0600141602168414501D1304610
:100DD00000E03846406820F0A00101D1304600E034
:100DE0003846416084F84150606C40F00200606415
:100DF000204600F02AF8019800071FD503988006C6
:100E00001CD52168414501D1304600E03846406894
:100E100020F0A00000D03E4670602068416821F0BC
:100E20006001416084F84150606C40F004006064EF
:100E300004B02046BDE8F04100F007B8BDE8FF81EE
:100E40000038004000340040704770472DE9F047FB
:100E5000040005D094F841004FF0000818B109E0F3
:100E60000120BDE8F08784F8408051486063204647
:100E700000F0A6F8022684F841602068C16940F6B7
:100E8000BF77B943C1612068066260694FF4007999
:100E900002282FD0E06870B12025A068202800D853
:100EA0006D00012000F0C2F9216949451FD1E168B8
:100EB00019B1A90002E01025EFE7E900B0FBF1F05D
:100EC00000EB800061694000B0FBF1F0401D0A2199
:100ED000B0FBF1F000F00101401A40080902821E47
:100EE000FE2A09D3606C40F010006064B8E7B0FBE4
:100EF000F5F0E5E70220002122690843024320685B
:100F00000262D4E901010843A269E1681143084380
:100F10002168CA69BA43104340F40060C861206A7E
:100F200001283AD12348606323482168234A4FF0BF
:100F30004023814201D1114600E01946C96921EAE6
:100F4000070101D1154600E01D46E9612168814293
:100F500001D1114600E019460E622568854201D193
:100F6000114600E01946C9698EB2616849451BD037
:100F7000D1B100212789B4F80CC047EA0C07B4F8B6
:100F800018C04CEA010C47EA0C07B9B2314341F4EE
:100F90000061854200D01A46D161C4F84480012026
:100FA00084F8410000205CE74FF48071E2E7000024
:100FB000D5230008550C00080038004000340040DC
:100FC0002DE9F0478AB0054614216846FFF7C3F9BA
:100FD00000240594069407940894404928688842A0
:100FE00078D132200226CDE906060127059705A80B
:100FF00000F04CF908B1FFF7B4FA3948016841F440
:1010000080410160006800F4804009903448103845
:10101000016841F004010160016801F004010991D7
:10102000016841F00201016000684FF0030800F020
:101030000200099004208DE8C1010620DFF8A4A079
:10104000049069465046FFF70FFC48204FF0050911
:101050008DE8C10369465046FFF706FC4FF4C060B7
:101060008DE8C10369462048FFF7FEFB204E1F486C
:101070004FF4806730604FF0C060C6E90104C6E9F4
:10108000034774614FF44038B461C6E907483046FD
:101090007462FFF76DFB08B1FFF763FAEE63B563A7
:1010A000134E124860361830E6E80204402091C61C
:1010B000400146F814098000B06140117462C6E92D
:1010C00007080B486030FFF753FB08B1FFF749FAF8
:1010D000AE63B5630AB0BDE8F08700000038004099
:1010E00040380240000802400004024058600240BC
:1010F000B4000020704770470248816802781144AC
:1011000081607047080000200B4810B5016841F469
:1011100000710160016841F480610160016841F47F
:1011200080710160032000F06FF80F2000F006F8D6
:1011300000F024F8002010BD003C024070B50D4DB9
:1011400004464FF47A712878B1FBF0F00A49096837
:10115000B1FBF0F001F0C8F848B9102C07D200221A
:101160002146501E00F030F800206C6070BD012058
:1011700070BD000008000020140000200A4808B5D7
:10118000016841F480410160006800F480400090F3
:101190000548001F016841F080510160006800F0BF
:1011A0008050009008BD000044380240002809DB50
:1011B00000F01F02012191404009800000F1E02071
:1011C000C0F8001170470000F0B40E4B1B680C46CD
:1011D000C3F30223C3F10705042D00D90425191D0B
:1011E000072901D2002300E0DB1E012606FA05F1E3
:1011F000491E214099409E40761E16403143F0BC66
:1012000001F0D1BF0CED00E0064900F007020868CC
:101210004FF6FF03184040EA0220034A10430860DB
:10122000704700000CED00E00000FA0501460020C8
:10123000012908D11149096811F4000104D0B1F560
:10124000000F00D10E4870470C48001F016800686D
:10125000490200F03F0001D50A4900E00A49074A67
:10126000B1FBF0F07C321168C1F388114143106882
:10127000C0F30270B1FBF0F0704700000838024084
:101280000080BB0040787D010024F4002DE9F84384
:10129000054600684FF00109C1074FF0000601D173
:1012A000400727D5DFF80C81C8F86860FFF7D4FB4A
:1012B0000746414C05E000BFFFF7CEFBC01B0228EC
:1012C00057D820680001F7D468688101287A41EA7C
:1012D0000070394984310860C8F86890FFF7BCFB9A
:1012E000074604E0FFF7B8FBC01B022841D820687E
:1012F0000001F7D52878800752D52F484030016883
:1013000041F08051016000682C4C00F0805000904A
:10131000206840F480702060FFF79EFB074604E0E1
:10132000FFF79AFBC01B022823D82068C005F7D519
:10133000214C7034206810F4407020D0A98901F449
:10134000407181421BD020681D4920F44070C1F8D3
:1013500000900E6020602068C00710D0FFF77CFB73
:10136000064641F2883707E0FFF776FB801BB8425C
:1013700002D90320BDE8F88320688007F4D5E96826
:101380000D48C1F301220830032A0BD0016821F473
:10139000F81101602068A989C1F30B01084320609E
:1013A0000020E7E70268074B22F4F81219400A43CD
:1013B0000260EFE700004742003802400070004042
:1013C000400E4742FFFCFF0F2DE9F0470E46050097
:1013D00065D0DFF81481D8F80000F7B200F00700FC
:1013E000B04207D288F80070D8F8000000F007007B
:1013F000B04254D128683D4C810712D5400703D52F
:10140000206840F4E05020602878000703D5206869
:1014100040F4604020602068A96820F0F000084394
:1014200020602878C0072DD0304968680839012825
:1014300012D0022813D0032811D009688907002987
:101440002DDA216821F0030101432160FFF704FB3D
:10145000814641F2883A0EE009688903EFE709689E
:101460008901ECE7FFF7F8FAA0EB0901514502D931
:101470000320BDE8F0872068696800F00C00B0EB3D
:10148000810FEFD1D8F80010404601F00701B142BA
:1014900007D90770006800F00700B04201D00120B2
:1014A000E7E72878400705D52068E96820F4E05090
:1014B000084320602878000706D52068296920F4B1
:1014C000604040EAC100206000F028F82168084A26
:1014D000C1F30311515CC840064908600648006822
:1014E000FFF72CFE0020C4E7003C02400838024011
:1014F00010320008140000200C00002004480549A8
:1015000000680968044AC1F38221515CC8407047F1
:10151000140000200838024020320008154810B599
:10152000006810F00C02144813D01449042A0FD09C
:10153000082A0ED10F4C241F2268236802F03F02B4
:101540005B0207D52068C0F38810A0FB010106E00C
:10155000084610BD2168C1F38811A1FB00010023DA
:10156000FEF782FE2168C1F30141491C4900B0FB2E
:10157000F1F010BD083802400024F40040787D01ED
:101580002DE9F84F04006ED02078DFF84C93C007A7
:10159000A9F104054AD009F104000168C1F38101F1
:1015A000012908D00068C0F3810002280AD1D9F8C7
:1015B0000000400206D52868800337D560680028FF
:1015C000E1D033E06068B0F5803F10D0B0F5A02FD7
:1015D000286810D020F480302860286820F480200B
:1015E00028606068A8B1FFF737FA06460DE0286862
:1015F00040F48030F4E740F480202860F7E700BF33
:10160000FFF72AFA801B642873D828688003F7D56F
:101610000CE0FFF721FA064605E000BFFFF71CFAD1
:10162000801B6428F0D828688003F7D42078DFF87E
:10163000AC8280074FF0000A3ED5A748001D016824
:1016400011F00C0F08D00068C0F3810002280BD104
:10165000D9F80000400207D42868800716D5E06852
:10166000012800D112E033E1E068B8B10120C8F8E8
:101670000000FFF7F1F9064605E000BFFFF7ECF9BF
:10168000801B0228C0D828688007F7D52868216900
:1016900020F0F80040EAC10028600DE0C8F800A082
:1016A000FFF7DAF9064604E0FFF7D6F9801B0228B7
:1016B0001FD828688007F7D42078000722D5864FE6
:1016C00087486169703771B101210160FFF7C4F982
:1016D000064604E0FFF7C0F9801B022809D83868E5
:1016E0008007F7D50EE0C0F800A0FFF7B5F9064671
:1016F00005E082E0FFF7B0F9801B02287DD838684A
:101700008007F7D42078400768D5DFF8CCB10027F0
:101710000BF13C0BDBF80000C0000BD4DBF8001031
:1017200041F08051CBF80010DBF80000012700F0F9
:10173000805000906B4E3068C00510D4306840F483
:1017400080703060FFF788F9009005E0FFF784F9BA
:101750000099401A022850D83068C005F6D55E4E70
:10176000A0686C3601280FD00528306810D020F012
:1017700001003060306820F004003060A068B8B12B
:10178000FFF76AF900900FE0306840F00100F4E7DD
:1017900040F004003060F7E7FFF75EF90099411A66
:1017A00041F28830814266D830688007F4D50EE077
:1017B000FFF752F9009007E0FFF74EF90099411A40
:1017C00041F28830814256D830688007F4D42FB176
:1017D000DBF8001021F08051CBF80010A069C8B3ED
:1017E0003D49091D0968C1F3810102294AD0022837
:1017F000504607D0C8F8600000E03CE0FFF72CF945
:1018000004463BE04746C8F86000FFF725F9064666
:1018100005E000BFFFF720F9801B02282BD82868BD
:101820008001F7D4D4E907010843A16A2E4A490888
:1018300002EB0141626A41EA8211084394F82C10DC
:1018400040EA0161C9F8001001203866FFF704F989
:10185000044606E03EE000BFFFF7FEF8001B02284A
:1018600009D828688001F7D534E000BFFFF7F4F805
:10187000001B022802D90320BDE8F88F28688001E8
:10188000F4D427E00128F7D0D9F80000E26900F489
:10189000800191421CD1226A00F03F01914217D190
:1018A00047F6C071626A0140B1EB821F10D1A26A93
:1018B0004FF0FF3300F4403103EB5202B1EB024F23
:1018C00006D194F82C1000F07060B0EB016F01D0DD
:1018D0000120D1E70020CFE7043802400000474252
:1018E000800E4742007000400000FFFF10B5FEF779
:1018F00096FD10BD2DE9FE430446002603200D464B
:1019000084F83400606C03285ED0B5F5805F5BD04E
:101910004FF4006700204FF08068BD421FD1814620
:10192000009001900021206800F0BDFE800113D4DA
:101930006946204601F03EFA07000DD101984003A8
:1019400034D5B4F850000104206800F0E3FE07002D
:1019500002D10221206823E0A06B384328E01DB1AA
:10196000A06B40F0006023E08146009001900021D0
:10197000206800F098FE8001EED46946204601F010
:1019800019FA0700E8D10198C0030FD5B4F8500048
:101990000104206800F0BEFE0700DDD100212068B0
:1019A00000F005FF0700D7D14F46D5E74746D3E7FC
:1019B000A063A06B144F4FF0010848B12068876303
:1019C00084F8348001260EE0A06B40F08050EFE7F1
:1019D000211DD4E9050C0EC9CDE90050CDF808C091
:1019E000206800F069FE4FF40071206800F0C6FE28
:1019F00028B121688F63A16B0143A163012684F89C
:101A000034803046BDE8FE83FF054000704700008B
:101A1000F0B5426E920F0A70426EC2F383624A7052
:101A2000426EC2F301628A70426E120CCA70B0F844
:101A30006420120A0A7190F864204A71826E120DB5
:101A4000CA80826EC2F303420A72B0F86820C2F301
:101A5000C0324A72B0F86820C2F380328A72B0F89D
:101A60006820C2F34032CA72B0F86820C2F3003274
:101A70000A7300264E73426C4FF40075012462B164
:101A8000012A3AD0026847499163816B41F0805145
:101A9000816380F834400120F0BDB0F86820C36E47
:101AA0009205120D42EA93720A61C26EC2F3C262DB
:101AB0000A75C26EC2F302624A75C26EC2F3425226
:101AC0008A75C26EC2F38242CA75C26EC2F3C23256
:101AD0000A760A69521C42650B7E03F007039B1CC1
:101AE0009A4042650B7A03F00F0704FA07F3836507
:101AF0005B0A5A43C0E917250EE090F86820C36ED0
:101B00009206920A42EA13420A610A69521C920240
:101B10004265C0E91652056630F86C2FC2F3803278
:101B200001F8192F0288C2F3C6124A70027802F037
:101B30007F028A704268D20FCA704268C2F3417253
:101B40000A714268C2F382624A714268C2F38352E8
:101B50008A714268C2F34052CA710E724268C2F37F
:101B600000424A728288C2F3C0328A728288C2F30B
:101B70008032CA728288C2F340320A738288C2F30A
:101B800000324A738288C2F381228A738288C2F348
:101B90000122CA730079C0F3460008744C74002017
:101BA000F0BD0000FF054000426C0A60826C4A6094
:101BB000C26C8A60026DCA60426D0A61826D4A61C0
:101BC000C26D8A61006EC8610020704770B504461E
:101BD000B0F8500000250104206800F0D0FE18B1D4
:101BE000A16B0143A16304E00021206800F05BFDCC
:101BF0000546C5F3432070BDF8B5056B0446006883
:101C0000416B09041BD5290719D5D4E90A56002EC2
:101C100014D00027206800F065FD05F8010B010ACB
:101C200005F8011B010C05F8021B000E361F7F1C76
:101C300005F8010C082FEDD3C4E90A56F8BD416B35
:101C40004FF00006C9054FF0010744D53902816302
:101C50002068C16B4CF23A329143C1632068C16A7B
:101C600021F00101C16228071DD515F0220F09D00E
:101C7000206800F0B5FE28B1A16B0143A1632046A6
:101C8000FFF7C4FE216840F23A50886384F834704C
:101C90002663A80703D0204600F046FAF8BD204688
:101CA00000F046FAF8BD2806FCD5A80609D520683C
:101CB00000F096FE28B1A16B0143A1632046FFF717
:101CC000A5FEA807EED12068C16A21F00801C16213
:101CD00084F83470E3E7416B490424D5290722D501
:101CE000D4E90856002EDDD05FF0000715F8010B8F
:101CF000009015F8011B361F40EA0120009015F8EE
:101D0000021B40EA0140009015F8011C40EA016006
:101D100000906946206800F0F8FC7F1C082FE5D38E
:101D2000C4E90856F8BD416B40F23A221142F9D09D
:101D3000416B890703D5A16B41F00201A163416B9F
:101D4000090703D5A16B41F00801A163416B890626
:101D500003D5A16B41F02001A163416BC90603D5F6
:101D6000A16B41F01001A163416B890503D5A16B03
:101D700041F00801A16340F23A7181632068C16BB0
:101D800040F23A329143C163206800F029FEA16B12
:101D90000843A063280706D584F8347026632046DC
:101DA000FFF734FEF8BD2806FCD515F0300F0CD037
:101DB000E16B11480865E06BFEF7F8FB0028F1D0F5
:101DC000E06BBDE8F84000F0D3BFA8070CD0216C51
:101DD0000A480865206CFEF7E9FB0028E2D0206C79
:101DE000BDE8F84000F0A2BFA66384F83470266313
:101DF0002046FFF77BFDF8BD712D00082D2D000852
:101E000070B504000ED094F83400002518B9257779
:101E1000204600F04DF8032084F83400204600F0FE
:101E20000BF808B1012070BDA5632563012084F87B
:101E30003400002070BD0000FEB500250446762069
:101E40000095CDE901502B462A462946206800F02E
:101E500033FC154E46F8A05F206800F03FFC0125DA
:101E600035600220FEF7EEFC204601F08BF828B129
:101E700084F83450A16B0143A16313E0204601F0C4
:101E800009F80028F4D14FF40071206800F076FCC6
:101E9000002808D0226805499163A16B0143A16322
:101EA00084F834500120FEBD00802542FF0540002B
:101EB000F0B587B0044614216846FEF74CFA1E4977
:101EC0002068884235D11D48016841F400610160F5
:101ED000006800F40060059018481438016841F06B
:101EE00004010160016801F004010591016841F0FD
:101EF000080101600068022400F0080005904FF41A
:101F0000F850012503260C278DE8F10069460C489E
:101F1000FEF7AAFC04208DE8F10069460948FEF7A7
:101F2000A3FC002211463120FFF74EF93120FFF7C4
:101F30003DF907B0F0BD0000002C014044380240DC
:101F400000080240000C02402DE9F04F87B09B468C
:101F500016460D460446FEF77FFD00903DB194F80D
:101F60003400012807D0A06B40F000500DE0A06BBA
:101F700040F0006009E00020A063E26D06EB0B0179
:101F8000914204D9A06B40F00070A0638AE0032165
:101F900084F834102168C862616C012900D076028F
:101FA0004FF0FF3101914FEA4B2102914FF00108B0
:101FB00003AA902102278146CDF8188082E8820288
:101FC00001A9206800F059FBBBF1010F05D9276377
:101FD0003146206800F044FC05E0C4F8308031460A
:101FE000206800F056FCDFF83CA130B12268C2F84E
:101FF00038A0A16B0143A16350E0029E1FE0406B3B
:10200000000413D596B10027206800F06BFB05F89B
:10201000010B010A05F8011B010C05F8021B000E5B
:10202000361F7F1C05F8010C082FEDD3FEF714FDB9
:1020300001460098091A1098814220D2F8B1206810
:10204000426B40F22A310A42D9D0416BC90509D509
:10205000BBF1010F06D9616C032903D000F0C0FC6D
:102060000028C3D12068416B090702D4416B890560
:102070001AD5C0F838A0A06B40F0080050E02168E5
:10208000C1F838A0A06B40F00040A06384F8348011
:10209000C4F83090032007B0BDE8F08F84F8348096
:1020A000C4F830900120F6E7416B890705D5C0F8E8
:1020B00038A0A06B40F0020032E0416B89061BD5CE
:1020C000C0F838A0A06B40F0200029E000F00AFB27
:1020D00005F8010B010A05F8011B010C05F8021BAC
:1020E000000E05F8010C361FFEF7B6FC0099411AE8
:1020F000109881420ED268B12068416B890201D5E7
:10210000002EE3D1216840F23A50886384F834808D
:102110000020C0E72168C1F838A0A06B40F0004063
:10212000A063BBE7FF05400010B5FEF7BBF910BD8B
:1021300010B5FEF7C9F910BD2DE9F04F8DB09B46E3
:1021400016460D460446FEF787FC0A903DB194F80A
:102150003400012807D0A06B40F000500DE0A06BC8
:1021600040F0006009E00020A063E26D06EB0B0187
:10217000914204D9A06B40F00070A0637AE0032183
:1021800084F834102168C862616C012900D076029D
:102190004FF0FF3103914FEA4B2104919021CDE99B
:1021A00005104FF00109CDE90709824603A920680F
:1021B00000F063FABBF1010F06D9202020633146FD
:1021C000206800F027FC05E01020206331462068DD
:1021D00000F039FC5FEA000806D0216841488863B6
:1021E000A06B40EA080074E0049E27E0406B4004C6
:1021F0001CD5DEB15FF0000715F8010B009015F853
:10220000011B361F40EA0120009015F8021B40EA2E
:102210000140009015F8011C40EA016000906946F9
:10222000206800F072FA7F1C082FE5D3FEF714FC3B
:102230000A99411A1698814220D2F8B12068416B60
:1022400040F21A321142D1D0416BC90523D5BBF1FE
:10225000010F20D9616C03291DD000F0C1FBD0B162
:10226000226820499163A16B0143A16384F83490F3
:10227000C4F830A001200DB0BDE8F08F21681948E6
:102280008863A06B40EA0800A06384F83490C4F827
:1022900030A00320EFE72068416B090702D4416BAF
:1022A000890505D50F498163A06B40F0080010E057
:1022B000416B890705D50B498163A06B40F0020093
:1022C00007E0416BC90606D506498163A06B40F063
:1022D0001000A063CAE740F23A51816384F8349059
:1022E0000020C8E7FF05400010B5401EB0F1807F18
:1022F00001D3012010BD4FF0E02460610F21601771
:1023000000F051FF0020A06107202061002010BDD7
:10231000FEE7000070B515490268154B4FF04024E8
:102320008A4201D11A4600E02246D568C26A961C4C
:10233000C6621580428E521E4286428E002A14D1F9
:1023400002688A4201D1194600E02146496821F01D
:10235000600100D023465960418D002905D14FF01E
:10236000010180F84110FEF76FFD70BD003800409C
:102370000034004070B5416A144B8A1C4262056803
:102380000988134A4FF040249D4201D1154600E0D0
:102390002546E960418D491E4185418D002914D1B2
:1023A0000168994201D1114600E02146496821F0B7
:1023B000A00100D022465160418E002905D14FF086
:1023C000010180F84110FEF73FFD70BD003800406C
:1023D000003400407CB5016804468868009094F899
:1023E00041000125042834D10098C00718D048685E
:1023F000C043400614D4C9682046E26A1180E16AED
:10240000891CE162618E491E6186618E41B9016855
:102410004A6822F060024A6080F84150FEF76AFE86
:102420000098400615D520684168C943890610D434
:10243000416821F0600141602068C16880680190B6
:1024400084F84150606C40F0020060642046FEF762
:10245000FCFC94F84100032834D10098800719D57A
:1024600021684868C043000614D4626A2046128876
:10247000CA60616A891C6162618D491E6185618DD6
:1024800041B901684A6822F0A0024A6080F84150D0
:10249000FEF731FE0098000714D520684168C94353
:1024A00089060FD4416821F0A0014160206880684E
:1024B000009084F84150606C40F004006064204655
:1024C000FEF7C3FC7CBD00000D4808B5016841F46F
:1024D000001101600068002200F400100090114615
:1024E0000E20FEF771FE0E20FEF760FE0022114660
:1024F0000F20FEF769FEBDE808400F20FEF756BE2C
:102500003038024010B504490448FEF72CF802495F
:10251000491E087010BD000002000020F4310008C0
:1025200030B587B014216846FDF715FF2648002511
:10253000016841F004010160016801F004010591A6
:10254000016841F080010160016801F0800105919E
:10255000016841F001010160016801F0010105918C
:10256000016841F010010160016801F0100105915E
:10257000016841F002010160016801F0020105916A
:10258000016841F0080101600068012400F00800C2
:1025900005904FF40050CDE90005694602940B48C0
:1025A000FEF762F9CDE90045694609480294FEF755
:1025B0005BF92002CDE90005694602940548FEF763
:1025C00053F907B030BD0000303802400008024027
:1025D00000000240001002400D4810B50B49016098
:1025E0000C49416000214FF480428160C0E9031230
:1025F00041618161C1610162FEF734FA002803D0B4
:10260000BDE81040FDF7ADBF10BD00000054004014
:1026100018000020A08601000C490D4810B54A158D
:10262000C0E9001200218160C0E903124FF47A5220
:10263000C0E90521C16101210162FEF707FC002804
:1026400003D0BDE81040FDF78CBF10BD003800403E
:102650006C0000200648054901600021416081604E
:10266000C16001614161816170470000002C01403F
:1026700074010020FEE7FEE770470A6842624A687C
:102680008262D1E902231A43D1E904310B43C16AC2
:102690001A4321F0F7011143C1620020704700681E
:1026A00000F0030070470844406970470148FFF795
:1026B000A3BA00007401002070B50DF1100C114395
:1026C0009CE870002343194329434268314347F68D
:1026D000FF639A430A434260002070BD03210160FA
:1026E00000207047D0F8800070470A688260D1E906
:1026F00001231A43D1E903310B43C1681A436FF335
:102700000B011143C160002070470968C0F88010B8
:102710000020704710B585B004463720CDE9001081
:1027200040200290002003904FF48060049069469E
:102730002046FFF7DAFF41F288323721204600F0C9
:102740009BF905B010BD000010B504460A4885B0DD
:1027500001432920CDE90010402002900020039081
:102760004FF48060049069462046FFF7BEFF204684
:1027700000F03AFA05B010BD0000108010B585B029
:1027800004461020CDE90010402002900020039064
:102790004FF48060049069462046FFF7A6FF41F29F
:1027A00088321021204600F067F905B010BD10B541
:1027B00085B004460620CDE900104020029000209C
:1027C00003904FF48060049069462046FFF78DFF28
:1027D00041F288320621204600F04EF905B010BDC6
:1027E00030B585B000240546009401944FF4806014
:1027F0000294CDE9034069462846FFF776FF0B486F
:102800004FF4FA510068B0FBF1F041F288314843CF
:10281000401E03D24FF0004005B030BD696B090681
:10282000F6D5C520A8632046F6E700001400002076
:1028300010B585B004464FF4D57000900820019083
:1028400040200290002003904FF48060049069467D
:102850002046FFF74AFF204600F02CFA05B010BDD5
:1028600010B585B004461220CDE90010402002903A
:10287000002003904FF48060049069462046FFF7E3
:1028800034FF41F288321221204600F0F5F805B0FD
:1028900010BD10B585B004461120CDE900104020D0
:1028A0000290002003904FF4806004906946204617
:1028B000FFF71BFF41F288321121204600F0DCF8BF
:1028C00005B010BD10B585B004460720CDE9002045
:1028D00040200290002003904FF4806004906946ED
:1028E0002046FFF702FF41F288320721204600F020
:1028F000C3F805B010BD10B585B004460021022014
:10290000CDE90010C020CDE902014FF480600490B1
:1029100069462046FFF7E9FE204600F03DF905B084
:1029200010BD10B585B004460920CDE90010C020C7
:102930000290002003904FF4806004906946204686
:10294000FFF7D3FE204600F027F905B010BD10B503
:1029500085B0044600213320CDE900104020CDE9A8
:1029600002010001049069462046FFF7BEFE41F2D5
:1029700088323321204600F07FF805B010BD10B535
:1029800085B004460D20CDE90010402002900020C3
:1029900003904FF48060049069462046FFF7A5FE3F
:1029A00041F288320D21204600F066F805B010BDD6
:1029B00030B585B00C46054600210320CDE9001056
:1029C0004020CDE902010001049069462846FFF746
:1029D0008CFE22460321284600F028F905B030BDC0
:1029E00010B585B0044600210C20CDE90010402030
:1029F000CDE902010001049069462046FFF775FE0B
:102A0000034A0C21204600F037F805B010BD000045
:102A100000E1F50510B585B004461920CDE9001098
:102A200040200290002003904FF48060049069469B
:102A30002046FFF75AFE41F288321921204600F065
:102A40001BF805B010BD10B585B004461820CDE9BF
:102A5000001040200290002003904FF4806004900A
:102A600069462046FFF741FE41F288321821204690
:102A700000F002F805B010BD454B10B51B684FF4CF
:102A8000FA54B3FBF4F353435B1E02D24FF0004001
:102A900010BD426B12F0450FF6D01205F4D4426B14
:102AA000520703D504218163084610BD426BD2074B
:102AB00002D00121816305E0C52282630269D2B29E
:102AC0008A4201D0012010BD0021FFF7ECFD314901
:102AD000084201D1002010BD002802DA4FF000703A
:102AE00010BD410001D5402010BD810001D58020DE
:102AF00010BDC10002D54FF4807010BD010102D598
:102B00004FF4007010BD410102D54FF4806010BD3C
:102B1000C10102D54FF4006010BD010202D54FF48F
:102B2000805010BD410202D54FF4005010BD81020B
:102B300002D54FF4804010BDC10202D54FF40040D1
:102B400010BD410302D54FF4003010BD810302D502
:102B50004FF4802010BDC10302D54FF4002010BDFA
:102B6000010402D54FF4801010BD410402D54FF48A
:102B7000001010BD810402D54FF4800010BD000785
:102B800002D54FF4000010BD4FF4803010BD00009E
:102B90001400002008E0FFFD12494FF4FA520968C2
:102BA000B1FBF2F141F288325143491E02D24FF09B
:102BB00000407047426B12F0450FF6D01205F4D476
:102BC000416B490703D50421816308467047416B77
:102BD000C90703D00121816308467047C52181637D
:102BE00000207047140000200F494FF4FA52096882
:102BF000B1FBF2F141F288325143491E02D24FF04B
:102C000000407047426B12F0450FF6D01205F4D425
:102C1000416B490703D50421816308467047C521EC
:102C200081630020704700001400002030B5204B65
:102C30004FF4FA541B68B3FBF4F341F28834634356
:102C40005B1E02D24FF0004030BD446B14F0450FC4
:102C5000F6D02405F4D4436B5B0703D504218163CC
:102C6000084630BD436BDB0702D00121816303E0DE
:102C70000369DBB28B4201D0012030BDC5218163E5
:102C80000021FFF710FD10F4604F04D0410406D579
:102C90004FF4005030BD000C1080002030BD000407
:102CA00002D54FF4805030BD4FF4803030BD00006D
:102CB0001400002014494FF4FA520968B1FBF2F1F4
:102CC00041F288325143491E02D24FF00040704712
:102CD000426B12F0450FF6D01205F4D4416B490750
:102CE00003D50421816308467047416BC90703D0AF
:102CF0000121816308467047416B490601D5402197
:102D000081630020704700001400002010B5064CBD
:102D100001202070FDF78AFB18B9207820F001000F
:102D20002070207810BD00000000002010B5846BDA
:102D300040F23A50216888632046FEF747FF0121A0
:102D400084F8341000212163062801D0052805D11C
:102D50002068FFF745FEA16B0843A063A06B002825
:102D6000204602D0FEF752FE10BDFEF7BFFD10BD9B
:102D700010B5846B40F23A50216888632046FEF714
:102D800025FF012184F8341000212163062801D099
:102D9000052805D12068FFF723FEA16B0843A06337
:102DA000A06B0028204602D0FEF730FE10BDFEF7D3
:102DB0009DFD10BD2DE9F04788B00D460446FDF796
:102DC0004BFE002682460096019637460821206871
:102DD000FFF7D4FC00282CD1B4F85000010420687F
:102DE000FFF798FC002824D1401E4FF00808CDE9D9
:102DF000020830204FF00209CDE904090120CDE995
:102E0000067002A92068FFF738FC2068FFF79FFDD5
:102E100000280ED16F462068416B11F02A0F0BD0AD
:102E2000416B090702D4416B89051AD5C0F8388077
:102E3000082008B0BDE8F087416B890205D5FFF78F
:102E400051FC47F82600761C02E0416B8904E7D567
:102E5000FDF702FEA0EB0A00401CDCD14FF0004061
:102E6000E7E7416B890703D5C0F838900220E0E717
:102E7000416B890603D5202181630846D9E740F2DA
:102E80003A518163019800BA2860009800BA6860DE
:102E90000020CEE710B590B004460120ADF8380010
:102EA0002068FFF7FCFB002854D0606C032842D058
:102EB0002068FFF720FD00284AD100212068FFF795
:102EC000F2FB606704212068FFF7EDFBA067082193
:102ED0002068FFF7E8FBE0670C212068FFF7E3FBC1
:102EE000C4F88000606C032825D00EA92068FFF785
:102EF0005FFD00282CD1606C03281CD0BDF8380081
:102F0000206501042068FFF70CFD002820D1002176
:102F10002068FFF7C8FB606604212068FFF7C3FB49
:102F2000A06608212068FFF7BEFBE0660C21206840
:102F3000FFF7B9FB206704212068FFF7B4FB000D01
:102F4000E06403A92046FEF763FD30B14FF08050E6
:102F500010B010BD4FF08060FAE7B4F850000023C5
:102F600002042068FFF7AEFC0028F1D104F1100044
:102F700007C88DE8070094E80F00FFF79DFB0020CD
:102F8000E6E700002DE9F84F002604460096354696
:102F9000B0460068FFF724FC002827D12068FFF71F
:102FA00047FC4FF0805B4FF001094FF6FF7748B1C7
:102FB000A6642068FFF714FC002817D1A06C012834
:102FC00002D020E0C4F8489000212068FFF7A2FB5F
:102FD00058B918E000212068FFF79CFB002805D1B4
:102FE00051462068FFF7B0FB10B15846BDE8F88F96
:102FF00000212068FFF757FB05464FEAD07800987C
:10300000401C009002E0DFF82CA00098B84202D2E9
:10301000B8F1000FDED00098B84202D34FF08070B4
:10302000E4E7680002D5C4F8449000E0666400203C
:10303000DCE70000000010C170B5064C0546012019
:103040002070FDF7FFF918B92846FFF75FFE2070E2
:10305000207870BD0000002010B5124888B01446DA
:103060000078C00702D0032008B010BDC1B101290B
:1030700005D0022908D003290CD00420F4E76846C3
:10308000FDF7CEF906980AE06846FDF7C9F90798FA
:10309000208005E06846FDF7C3F90798400A2060E4
:1030A0000020E1E70000002070B51D4616460846E6
:1030B0000124A31E2A463146FDF7E4F928B900BFD2
:1030C000FDF7B4F90028FBD10024204670BDFFF7BE
:1030D0001DBE000070B51D46164608460124A31EFD
:1030E0002A463146FDF7E0F928B900BFFDF79EF901
:1030F0000028FBD10024204670BD7047FDF7FCBFBF
:1031000030B593B030216846FDF725F914210CA89D
:10311000FDF721F91D480025016841F0805101604B
:10312000006800F0805011901948016841F4804116
:1031300001600068022400F4804011900120039097
:1031400010200490009406940820CDE90750A82090
:10315000CDE9090407200B906846FEF711FA08B183
:1031600072B6FEE70CA90F2081E831004FF4A050A1
:103170000F904FF48050109005210CA8FEF724F911
:10318000002801D072B6FEE713B030BD40380240CF
:10319000007000400248016841F47001016070470E
:1031A00088ED00E0FEE70907090E002804DB00F1C6
:1031B000E02080F80014704700F00F0000F1E020DC
:1031C00080F8141D7047FDF79FFFFFF799FFFFF789
:1031D000A7F9FFF779F9FFF7FFF9FFF71DFAFFF7F6
:1031E00039FAFFF78FF9FEE74FF04070E1EE100A71
:1031F0007047000039300008CF300008A9300008BF
:10320000D5300008593000080006101600061016C8
:103210000000000000000000010203040607080986
:1032200000000000010203044832000800000020F2
:1032300018000000C40100086032000818000020D7
:1032400050080000E001000801000000000000003C
:103250000100000010000000000000000024F40045
:040000050800018965
:00000001FF
